:100000000C9460000C947D000C947D000C947D0099
:100010000C947D000C947D000C947D000C947D006C
:100020000C947D000C947D000C947D000C947D005C
:100030000C94D1020C947D000C947D000C947D00F6
:100040000C947D000C947D000C947D000C947D003C
:100050000C947D000C947D000C947D000C947D002C
:100060000C947D000C947D000C947D000C947D001C
:100070000C947D000C947D000C947D000C947D000C
:100080000C947D000C947D000C947D000C947D00FC
:100090000C947D000C947D000C947D000C947D00EC
:1000A0000C947D000C947D000C947D00F00DF00DFF
:1000B000F00D200E280E380EF00DF00D200E280E3B
:1000C00011241FBECFEFDAE0DEBFCDBF11E0A0E00C
:1000D000B1E0ECE3FFE102C005900D92A432B1075C
:1000E000D9F721E0A4E2B1E001C01D92A13BB20723
:1000F000E1F70E949C010C949C0F0C940000CF939C
:10010000DF93EC010E946908CE010E946B0EEC01A6
:100110000E943809209711F40E94BB00CE01DF91A4
:10012000CF910895CF93DF93009741F0EC010E94A7
:100130006908CE010E94030F0E943809DF91CF9118
:10014000089583EF80937E008FE380937D0080B7D6
:10015000877F80BF80B7806880BF83B7817F83BF80
:100160000FB6F8940F9283B7816083BF0F900FBED4
:10017000889513BE08953F9A479A83ED90E30197BF
:10018000F1F700C00000379AF8CF3F9A479A2FE75F
:100190008AE196E0215080409040E1F700C00000E5
:1001A000379AF5CFFC010396928381832FEF3FEFBF
:1001B0003483238396838583908787831082089571
:1001C000FC01118610860895CF93DF939C01FB01FB
:1001D000DC011196CD91DC911297D383C2838C817F
:1001E0009D81958384838C819D81DC0113967C9312
:1001F0006E9312977D836C8331872087F90180810C
:100200008F5F8083DF91CF910895CF93DF93EB01D0
:10021000488159814F3F2FEF520721F4FC01A781FC
:10022000B0850DC0DC01139601C0DF011296ED917F
:10023000FC9113972081318142175307B0F7129632
:10024000ED91FC911397FB83EA83D583C483BD832F
:10025000AC831396DC93CE93129799878887FC0121
:1002600020812F5F2083DF91CF910895CF93DF937B
:10027000FC01A085B185C281D381848195819D8354
:100280008C83C481D581828193819B838A831196DB
:100290008D919C911297E817F90731F4848195812B
:1002A00012969C938E931197118610868C91815093
:1002B0008C938C91DF91CF9108956FEF7FEF8091B8
:1002C000AB019091AC010E9484056FEF7FEF8091AC
:1002D000AB019091AC010E9484058823B1F3589A38
:1002E00088E893E10E94BB09589888E893E10E944E
:1002F000BB09289A20E040E050E060E070E0809187
:10030000AB019091AC010E940E04DFCF599A88E8AE
:1003100093E10E94BB09599888E893E10E94BB09C8
:1003200020E040E050E060E070E08091AB0190910F
:10033000AC010E940E04EACF8FEF84B915B88AB9D8
:100340001BB82091260130912701E12CF12C03E00C
:1003500045E550E066E071E08DE591E00E941F0701
:10036000209124013091250102E045E550E06EE046
:1003700071E086E891E00E941F0743E060E081E0C1
:100380000E94EB039093AC018093AB01009739F08E
:1003900020E040E050E060E070E00E940E040E9427
:1003A0003B08FFCFFC016083319770833197108247
:1003B000319720E8208331971082779740833197D7
:1003C000508383970895A89590EC88E10FB6F89430
:1003D000A895809360000FBE90936000A0918D015E
:1003E000B0918E01CD91CDBFDD91DEBFFF91EF9138
:1003F000DF91CF91BF91AF919F918F917F916F913D
:100400005F914F913F912F911F910F91FF90EF902E
:10041000DF90CF90BF90AF909F908F907F906F9024
:100420005F904F903F902F901F900F900FBE0F90B6
:10043000089581E008950F920FB6F8940F921F92DD
:1004400011242F923F924F925F926F927F928F92E0
:100450009F92AF92BF92CF92DF92EF92FF920F9353
:100460001F932F933F934F935F936F937F938F933C
:100470009F93AF93BF93CF93DF93EF93FF93A0919D
:100480008D01B0918E010DB60D920EB60D920E94A7
:10049000CF09A0918D01B0918E01CD91CDBFDD919D
:1004A000DEBFFF91EF91DF91CF91BF91AF919F910F
:1004B0008F917F916F915F914F913F912F911F91FC
:1004C0000F91FF90EF90DF90CF90BF90AF909F90F3
:1004D0008F907F906F905F904F903F902F901F90E4
:1004E0000F900FBE0F9008950F920FB6F8940F92D1
:1004F0001F9211242F923F924F925F926F927F92A0
:100500008F929F92AF92BF92CF92DF92EF92FF9223
:100510000F931F932F933F934F935F936F937F930B
:100520008F939F93AF93BF93CF93DF93EF93FF93FB
:10053000A0918D01B0918E010DB60D920EB60D9267
:1005400013BE0E94790881110E94CF09A0918D01EC
:10055000B0918E01CD91CDBFDD91DEBFFF91EF91C6
:10056000DF91CF91BF91AF919F918F917F916F91CB
:100570005F914F913F912F911F910F91FF90EF90BD
:10058000DF90CF90BF90AF909F908F907F906F90B3
:100590005F904F903F902F901F900F900FBE0F9045
:1005A00008950E94740218950FB6F8940F92FC01FA
:1005B000928D0F900FBE81E0911180E008950F930E
:1005C0001F93CF93DF93EC01042F1A8D4C8D4111B3
:1005D0000CC088819981892B09F042C08C819D8152
:1005E0000E94880B1D821C8242C0011117C050E07E
:1005F0008A819B810E948C0F2C8D8A819B81820F26
:10060000911D9B838A832C813D818217930750F132
:10061000888199819B838A8380E029C050E08E8104
:100620009F810E948C0F8C8D90E09195819591090E
:100630002E813F81280F391F3F832E8348815981A6
:100640002417350730F42C813D81820F931F9F833F
:100650008E83023049F4112349F0115080E007C025
:1006600080E005C080E003C080E001C080E01F5F43
:100670001A8FDF91CF911F910F910895FC01448D46
:100680004423A9F050E026813781240F351F37839A
:100690002683848195812817390720F080819181F4
:1006A00097838683CB01668177810E948C0F0895A2
:1006B000EF92FF920F931F93CF938C010FB6F89494
:1006C0000F92FC01C68D1C16ACF48189811106C005
:1006D00011C0F8018189811105C00CC07801F1E1D8
:1006E000EF0EF11CC7010E947B0A81110E94040BCE
:1006F000C15079F78FEFF801868F0F900FBE0FB6BC
:10070000F8940F92C58D1C16ACF48085811106C03B
:1007100011C0F8018085811105C00CC07801F8E096
:10072000EF0EF11CC7010E947B0A81110E94040B8D
:10073000C15079F78FEFF801858F0F900FBECF91E1
:100740001F910F91FF90EF900895CF93DF93EC01ED
:100750000FB6F8940F92E881F9818B8D2C8D90E083
:1007600030E0829FA001839F500D929F500D112475
:100770004E0F5F1F5D834C831A8EFB83EA830197C4
:10078000829FA001839F500D929F500D1124CF0195
:10079000840F951F9F838E838FEF8D8F8E8F6111B6
:1007A0000CC08885882389F0CE0108960E947B0AB8
:1007B000882359F00E941B0208C0CE0108960E94AF
:1007C000D200CE0141960E94D2000F900FBE81E070
:1007D000DF91CF9108950F931F93CF93DF93082F4D
:1007E000162F869FC00111244F960E947F00EC01B6
:1007F000009771F0111103C09983888303C04F964D
:10080000998388830B8F1C8F61E0CE010E94A50322
:10081000CE01DF91CF911F910F9108959F92AF92DA
:10082000BF92CF92DF92EF92FF920F931F93CF93DD
:10083000DF9300D000D01F92CDB7DEB78C016B01E3
:100840005D834C83A22EB12C992493947C0188E083
:10085000E80EF11C0FB6F8940F92F801928D838D7B
:10086000981718F0F2E0AF1219C04A2DB601C8016E
:100870000E94DF02F8019189992349F0C80141964D
:100880000E947B0A882331F00E941B0203C0811161
:100890000E941B020F900FBE81E050C08C819D8191
:1008A000892B21F40F900FBE80E048C0B11005C025
:1008B000CE0101960E94C30AB92C0F900FBE0E9470
:1008C00069080FB6F8940F92F801858D8F3F09F4EF
:1008D000158EF801868D8F3F09F4168E0F900FBE8E
:1008E000BE016C5F7F4FCE0101960E94CE0A81113E
:1008F0001FC00FB6F8940F92F801928D838D0F9060
:100900000FBE98130FC06C817D81C7010E94500AF1
:10091000C8010E9458030E94380981119BCF0E9490
:100920001B0298CFC8010E9458030E94380992CF39
:10093000C8010E9458030E94380980E00F900F9070
:100940000F900F900F90DF91CF911F910F91FF901B
:10095000EF90DF90CF90BF90AF909F900895EF926F
:10096000FF920F931F93CF93DF938A01FC01528D67
:10097000338D531710F0223001F5422F7801EC012E
:100980001E8D8A8DCE010E94DF021F3F81F489896E
:100990008823A9F0CE0141960E947B0A882389F022
:1009A000E114F10481F081E0F70180830DC0FF24A0
:1009B000F394F10EFE8E81E007C080E005C081E077
:1009C00003C081E001C081E0DF91CF911F910F91C1
:1009D000FF90EF9008959F92AF92BF92CF92DF92D7
:1009E000EF92FF920F931F93CF93DF9300D000D02D
:1009F0001F92CDB7DEB78C015B015D834C83E12C88
:100A0000992493946C0181E1C80ED11C0FB6F8941F
:100A10000F92F801F28CFF20A9F0B501C8010E94E5
:100A20003E03FA94F801F28E8085882339F0C801DC
:100A300008960E947B0A81110E941B020F900FBE34
:100A400081E051C08C819D81892B21F40F900FBED4
:100A500080E049C0E11005C0CE0101960E94C30AA2
:100A6000E92C0F900FBE0E9469080FB6F8940F9200
:100A7000F801858D8F3F09F4158EF801868D8F3F23
:100A800009F4168E0F900FBEBE016C5F7F4FCE0132
:100A900001960E94CE0A81111AC0C8010E94D40298
:100AA000882379F06C817D81C6010E94500AC801BB
:100AB0000E9458030E9438098111A8CF0E941B028E
:100AC000A5CFC8010E9458030E9438099FCFC801D2
:100AD0000E9458030E943809C8010E94D40288234A
:100AE00009F494CF80E00F900F900F900F900F902B
:100AF000DF91CF911F910F91FF90EF90DF90CF90FA
:100B0000BF90AF909F900895BF92CF92DF92EF92E7
:100B1000FF920F931F93CF93DF9300D000D01F92CB
:100B2000CDB7DEB78C017D836C83B12CD12CCC2466
:100B3000C3947C0181E1E80EF11C0FB6F8940F928A
:100B4000D8015A968C915A978823E9F081505A9689
:100B50008C935A978D919C91892B29F40E94180CA3
:100B6000F80195838483D80118968C91882339F0F5
:100B7000C80108960E947B0A81110E941B020F90F7
:100B80000FBE81E07FC08C819D81892B21F40F9065
:100B90000FBE80E077C0D11005C0CE0101960E9443
:100BA000C30ADC2C0F900FBE0E9469080FB6F894A0
:100BB0000F92F801858D8F3F09F4158ED8015E964E
:100BC0008C915E978F3F11F45E961C920F900FBE32
:100BD000BE016C5F7F4FCE0101960E94CE0A81114B
:100BE00029C0C8010E94D4028823F1F0F801808155
:100BF0009181892B51F40FB6F8940F9284819581DD
:100C00000E94160BB82E0F900FBE6C817D81C7011C
:100C10000E94500AC8010E9458030E94380981119D
:100C20008CCF0E941B0289CFC8010E9458030E94EA
:100C3000380983CFC8010E9458030E943809C801AF
:100C40000E94D402882309F478CFBB20D1F00FB6DC
:100C5000F8940F92F8018189882339F00688F78982
:100C6000E02D808164E0681B01C060E0D80114962B
:100C70008D919C9115970E94C80B0F900FBE80E03C
:100C800001C080E00F900F900F900F900F90DF91B8
:100C9000CF911F910F91FF90EF90DF90CF90BF9079
:100CA0000895CF93DF93EC010FB6F8940F928D8DDA
:100CB0008F3F09F41D8E8E8D8F3F09F41E8E0F908D
:100CC0000FBE8A8D811104C0CE0141960E94620A36
:100CD000CE010E945803DF91CF910895E091550114
:100CE000F09156018081811107C08FEF9FEF9093A3
:100CF0002C0180932B010895E0915501F09156014C
:100D00000580F681E02D0680F781E02D82819381B8
:100D100090932C0180932B010895FF920F931F93C2
:100D2000CF93DF93EC01F62E009134011091350141
:100D300080918D0190918E0102960E943601CF3FE5
:100D40008FEFD80769F4FF2059F060918D01709101
:100D50008E016E5F7F4F87E391E00E94E4002FC019
:100D6000C00FD11FE0918D01F0918E01D383C2831A
:100D7000C017D10768F460918D0170918E01809148
:100D80005301909154016E5F7F4F0E94050117C07F
:100D900060918D0170918E01809155019091560165
:100DA0006E5F7F4F0E94050180912B0190912C0175
:100DB000C817D90720F4D0932C01C0932B01DF91E1
:100DC000CF911F910F91FF90089501E411E00F2E34
:100DD000F9E6EF2EF1E0FF2EF02D809140018823FF
:100DE00029F10FB6F8940F92D8011596ED91FC9168
:100DF0001697C681D781CE0102960E943601809156
:100E0000360181508093360180914001815080935A
:100E100040010F900FBE8F89988D0E949200CE01E5
:100E20000E949200809140018111DBCFF701808107
:100E3000823010F00E941B020E94A100CECF4F9280
:100E40005F926F927F928F929F92AF92BF92CF925A
:100E5000DF92EF92FF920F93CF93DF934C016B01E0
:100E60005A012901CA010E947F003C01892B09F423
:100E7000F1C088E290E00E947F00EC01892B99F09C
:100E8000788E6F8AA50165EA70E0C3010E94950F14
:100E900081E0A81AB1088F89988DA80EB91EC114D7
:100EA000D10429F420C0C3010E949200D3C0D6010E
:100EB0008C91898F8C918823A1F0AE01465E5F4FA3
:100EC000F6013196B8E0CB0ED11CCF012191DA01A9
:100ED0002D93AD01DC018C91882319F0EC15FD05F3
:100EE000A1F718A201C0198E043008F003E00E8BA0
:100EF00009A31AA26E01B2E0CB0ED11CC6010E945A
:100F0000E000CE010C960E94E000D987C88784E0FB
:100F100090E0801B91099D878C87DB8BCA8B1BA27D
:100F20001CA21DA21EA21FA2A201B401C5010E9403
:100F3000D20199838883E114F10419F0F701D18378
:100F4000C0830FB6F8940F92809136018F5F809323
:100F5000360180918D0190918E01892BD1F5D0932E
:100F60008E01C0938D0180913601813009F041C01E
:100F700089E691E00E94D20082E791E00E94D200CF
:100F80008BE791E00E94D20084E891E00E94D200B9
:100F900080E691E00E94D20087E591E00E94D200B5
:100FA0008AE491E00E94D20081E491E00E94D200A4
:100FB00087E391E00E94D20080E691E09093560191
:100FC0008093550187E591E09093540180935301FC
:100FD00010C08091320181110CC0E0918D01F0911F
:100FE0008E0196898E89891720F0D0938E01C09347
:100FF0008D0180912D018F5F80932D018E899091BD
:101000003301981710F48093330190E09C01220F74
:10101000331F220F331F220F331F820F931FB6017E
:1010200087599E4F0E94E4000F900FBE80913201BD
:10103000882361F0E0918D01F0918E0196898E896F
:10104000981730F40E941B0281E005C081E003C0C4
:1010500081E001C08FEFDF91CF910F91FF90EF9072
:10106000DF90CF90BF90AF909F908F907F906F90C8
:101070005F904F900895EF92FF920F930F2EF9E239
:10108000EF2EF1E0FF2EF02D00E020E030E045E50E
:1010900050E066E171E085EE96E00E941F07813026
:1010A000A1F40E94820C813081F4F8948FEF9FEFBD
:1010B00090932C0180932B0181E080933201109258
:1010C0003501109234010E94E3010F91FF90EF90DF
:1010D0000895809128018F5F8093280108950FB6AD
:1010E000F8940F9280913401909135010F900FBECA
:1010F0000895CF92DF92EF92FF920F931F93CF93B9
:10110000DF938091280181119FC0E0903401F0901D
:1011100035018FEFE81AF80AF0923501E0923401B8
:10112000E114F104B9F48091550190915601209198
:1011300053013091540130935601209355019093FF
:1011400054018093530180912E018F5F80932E0173
:101150000E946E0680912B0190912C01E816F906F1
:1011600010F4D12C53C0D12CCC24C394E091550160
:10117000F09156018081811107C08FEF9FEF90930E
:101180002C0180932B0142C0E0915501F091560152
:101190000580F681E02DC681D7818A819B81E81682
:1011A000F90628F490932C0180932B012FC08E0117
:1011B0000E5F1F4FC8010E9436018C899D89892BC3
:1011C00021F0CE010C960E9436018E899091330158
:1011D000981710F48093330190E09C01220F331F85
:1011E000220F331F220F331F820F931FB80187591D
:1011F0009E4F0E94E400E0918D01F0918E019E8946
:101200008689981708F4B2CFDC2CB0CFE0918D011D
:10121000F0918E01868990E0FC01EE0FFF1FEE0F2A
:10122000FF1FEE0FFF1F8E0F9F1FFC01E759FE4FA0
:101230008081823010F0DD24D39480912F018823A7
:1012400069F0DD24D3940AC080913001909131017E
:1012500001969093310180933001D12C8D2DDF9137
:10126000CF911F910F91FF90EF90DF90CF90089555
:10127000DF92EF92FF920F931F93CF93DF930FB6FE
:10128000F8940F92809128018150809328018091D9
:101290002801811163C080913601811133C061C082
:1012A000D7011596ED91FC911697C681D781CE0195
:1012B0000C960E9436018E010E5F1F4FC8010E94DE
:1012C00036018E8990913301981710F48093330181
:1012D00090E09C01220F331F220F331F220F331F78
:1012E000820F931FB80187599E4F0E94E400E0913E
:1012F0008D01F0918E019E898689981768F0D092B1
:101300002F010AC0C0E0D0E00F2EFAE4EF2EF1E08A
:10131000FF2EF02DDD24D394F70180818111C0CF01
:10132000CD2B11F00E946E06C0913001D091310199
:10133000209761F011E00E947908811110932F012C
:101340002197C9F7109231011092300180912F013D
:10135000882331F00E941B0281E003C080E001C0BD
:1013600080E00F900FBEDF91CF911F910F91FF9002
:10137000EF90DF900895CF93DF93EC01892B51F02C
:101380000E94690860E0CE010E948D060E94380923
:10139000811102C00E941B02DF91CF9108958091BC
:1013A0002801882321F081E080932F010895109275
:1013B0002F01A0918D01B0918E01E0918D01F091EE
:1013C0008E012D913C918789908D8217930760F053
:1013D00060918D0170918E0180918D0190918E01AF
:1013E000675E7F4F0E94C50020913301822F90E0FD
:1013F000FC01EE0FFF1FEE0FFF1FEE0FFF1FE80FA8
:10140000F91FE759FE4F3081311111C02150822F51
:1014100090E0FC01EE0FFF1FEE0FFF1FEE0FFF1F0E
:10142000E80FF91FE759FE4F3081332379F3AC0100
:10143000440F551F440F551F440F551F480F591F88
:10144000DA01A759BE4F1196ED91FC9112970280D7
:10145000F381E02D1296FC93EE93119744595E4F61
:10146000E417F50729F442815381FD01528341833A
:10147000FC01EE0FFF1FEE0FFF1FEE0FFF1F8E0F81
:101480009F1FFC01E759FE4F0180F281E02D86810C
:10149000978190938E0180938D012093330108955D
:1014A000CF93DF93EB0160918D0170918E01645FAA
:1014B0007F4F0E94050161E0CE010E948D06DF9101
:1014C000CF9108950F931F93CF938B01C42F6091F9
:1014D0008D0170918E01645F7F4F0E94E400CC23E8
:1014E00011F00FEF1FEF6C2FC8010E948D06CF91F6
:1014F0001F910F9108950F931F93CF93DF93DC01FA
:101500001596ED91FC911697C681D7818E01045FE7
:101510001F4FC8010E9436018091280181111CC013
:101520000A501109C8010E9436018E899091330139
:10153000981710F48093330190E09C01220F331F21
:10154000220F331F220F331F820F931FB8018759B9
:101550009E4F0E94E40005C0B8018AE491E00E9419
:10156000E400E0918D01F0918E019E8986898917B2
:1015700020F481E080932F0101C080E0DF91CF91C2
:101580001F910F91089520912E01FC01208320913D
:10159000340130913501328321830895CF93DF9355
:1015A0000FB6F8940F922091340130913501DB0190
:1015B0004D915C914F3FBFEF5B07F1F0EC01E9818A
:1015C000FA81A0912E01B881BA1719F02E173F07A2
:1015D000A8F42E1B3F0B2417350748F4FB01421BD0
:1015E000530B518340830E94C30A80E008C0FB0173
:1015F0001182108281E003C080E001C081E00F9081
:101600000FBEDF91CF91089581E080932F0108955F
:1016100080913201882331F080912801882321F0C4
:1016200080E0089581E0089582E008950F931F936C
:10163000CF93DF93FC01892B09F464C02689A09124
:101640008D01B0918E0156968C91281708F04EC0EE
:1016500084859585992364F0A0918D01B0918E01C8
:1016600056963C9184E090E0831B9109958784878E
:1016700030E0C901880F991F880F991F880F991FA3
:10168000280F391F27593E4F82859385821793076C
:1016900021F58F01EF012296CE010E943601E091E3
:1016A0008D01F0918E018689F801868B909133012E
:1016B000981710F48093330190E09C01220F331FA0
:1016C000220F331F220F331F820F931FBE01875932
:1016D0009E4F0E94E40081E016C0A0918D01B09160
:1016E0008E0156968C91868B81E00DC0A0918D0164
:1016F000B0918E0181E021A156969C91291718F096
:1017000080E001C080E0DF91CF911F910F9108959B
:101710000F931F93CF93DF93FC01892B79F182A163
:10172000815082A3268991A1291751F181112AC0E4
:10173000EF018F010E5F1F4FC8010E94360189A182
:101740008E8B24E030E0281B31093D872C87909157
:101750003301981710F48093330190E09C01220F1D
:10176000331F220F331F220F331F820F931FB80125
:1017700087599E4F0E94E40081E005C080E003C0CD
:1017800080E001C080E0DF91CF911F910F9108951B
:101790000F931F93CF93DF93FC01892B09F443C070
:1017A00091A1961708F4962F86898917E1F122A155
:1017B0002130C9F5968B24853585332334F024E018
:1017C00030E0291B31093587248790E09C01220FE6
:1017D000331F220F331F220F331F820F931F87598E
:1017E0009E4F2285338528173907E9F4EF018F01D1
:1017F0000E5F1F4FC8010E9436018E899091330100
:10180000981710F48093330190E09C01220F331F4E
:10181000220F331F220F331F820F931FB8018759E6
:101820009E4F0E94E400DF91CF911F910F91089588
:1018300080918D0190918E01892B39F0E0918D017D
:10184000F0918E0182A18F5F82A380918D01909192
:101850008E010895FC017383628391878087461708
:10186000570790F0421B530B8485958548175907FD
:10187000E0F4BF016E5F7F4F8091950190919601DA
:101880000E94050180E008954217530718F462177B
:10189000730768F4BF016E5F7F4F8091970190914D
:1018A00098010E94050180E0089581E0089581E09B
:1018B00008950FB6F8940F9280919301909194013E
:1018C000892BE9F482EA91E00E94D20089E991E053
:1018D0000E94D20082EA91E0909398018093970150
:1018E00089E991E0909396018093950140E065E04D
:1018F0008AE00E94EB0390939401809393010F90F0
:101900000FBE0895EF92FF920F930E94590C8091A1
:10191000930190919401892B91F00F2EF1E9EF2E14
:10192000F1E0FF2EF02D03E020E030E045E550E04F
:101930006BE171E08CE59DE00E941F0701C080E033
:101940000F91FF90EF9008950F931F93CF93DF9324
:1019500000D000D01F92CDB7DEB7E0919301F09197
:101960009401309771F1D90169835B834A839D8328
:101970008C836630ECF40E94080B823061F420E026
:10198000A801BE016F5F7F4F8091930190919401F8
:101990000E940E0417C020E040E050E0BE016F5FDF
:1019A0007F4F80919301909194010E940E040AC090
:1019B00020E0AD01BE016F5F7F4FCF010E94AF04F9
:1019C00001C080E00F900F900F900F900F90DF916B
:1019D000CF911F910F910895AF92BF92CF92DF9256
:1019E000EF92FF920F931F93CF93DF936C010E94AE
:1019F0006F087C0180918F0190919001E816F906A3
:101A000008F048C030C00580F681E02DA080B1808C
:101A1000C681D7818E010E5F1F4FC8010E9436011B
:101A2000E889F989CE0109958A8982FF1CC08C85D5
:101A30009D858A0D9B1DA816B90660F49B838A8339
:101A4000D987C887B80180919701909198010E9429
:101A5000050109C000E010E020E030E0A50160E0F1
:101A6000CE010E94A40CE0919701F0919801808131
:101A70008111C9CF80919501909196019093980121
:101A800080939701F0939601E093950181E0F60130
:101A9000808302C0F6011082F0929001E0928F01E3
:101AA000C701DF91CF911F910F91FF90EF90DF90D1
:101AB000CF90BF90AF900895CF93DF9300D000D028
:101AC00000D0CDB7DEB7CE0101964C01442443943B
:101AD000E12CF12C512CC82ED92CE0919701F091DA
:101AE00098018081882309F4DCC00580F681E02D0F
:101AF000A080B1800E946908C4010E94EC0C8C0196
:101B0000898181114BC00A151B05B8F10E94380963
:101B1000E0919701F09198010580F681E02D6680B3
:101B20007780C30102960E943601D30152968C91B0
:101B3000529782FF17C01C966D917C911D976A0D7C
:101B40007B1D9501A801C3010E942A0C882369F01E
:101B50000E2D1F2D2E2D3F2DA501652DC3010E9499
:101B6000A40C03C08E7FF301828BD3015096ED91BC
:101B7000FC915197C301099587C0452DB501601BA4
:101B8000710B80919301909194010E9451060E94E3
:101B90003809811179C00E941B0276C00E94380961
:101BA00073C0898188230CF46FC0AC80BD80F501BF
:101BB00082859385892B21F0C50102960E9436010A
:101BC000CE0106960E94EC0CE9810E2E000CFF0B54
:101BD000EA30F10508F058C0EA5AFF4F0C94650E40
:101BE000D50152962C915297216052962C93529780
:101BF0002A813B811C966D917C911D97620F731F0A
:101C0000AC01C5010E942A0C8823F1F1D501509640
:101C1000ED91FC915197C5010995F501828982FFEB
:101C200033C04A815B8184859585480F591F0E2DED
:101C30001F2D2E2D3F2D652DC5010E94A40C24C003
:101C4000D50152968C9152978E7F52968C931CC0E0
:101C5000F50122892160228B6A817B8175876487E7
:101C6000680F791F9C01AC01C5010E942A0C0CC0B1
:101C7000D50152968C9181FD04C0C5010E9492004D
:101C800003C08E7FF501828B4E2D5F2D6C2D7D2D37
:101C900080919301909194010E94EB04811181CF76
:101CA0001CCF0E946908C4010E94EC0C8C01898140
:101CB000811174CFE0919501F09196018081442DBE
:101CC0008111452DAE2CBF2C59CFEE0FFF1F059073
:101CD000F491E02D09940F931F93CF93DF938230FB
:101CE000910510F482E090E0E091AF01F091B00135
:101CF00020E030E0A0E0B0E0309719F14081518160
:101D00000281138148175907C8F08417950769F4B1
:101D1000109731F012960C93129713961C9327C0CC
:101D20000093AF011093B00122C02115310519F0C5
:101D30004217530718F49A01BD01EF01DF01F801C2
:101D4000DBCF21153105F9F0281B390B2430310583
:101D500080F48A819B816115710521F0FB019383D9
:101D6000828304C09093B0018093AF01FE0132964C
:101D700044C0FE01E20FF31F819391932250310979
:101D8000398328833AC02091AD013091AE01232BD5
:101D900041F420910201309103013093AE01209370
:101DA000AD0120910001309101012115310541F46F
:101DB0002DB73EB74091040150910501241B350B0E
:101DC000E091AD01F091AE01E217F307A0F42E1BF4
:101DD0003F0B2817390778F0AC014E5F5F4F24178F
:101DE000350748F04E0F5F1F5093AE014093AD0191
:101DF0008193919302C0E0E0F0E0CF01DF91CF91B9
:101E00001F910F910895CF93DF93009709F481C03C
:101E1000FC01329713821282A091AF01B091B00100
:101E2000109781F420813181820F931F2091AD01A1
:101E30003091AE012817390751F5F093AE01E093C8
:101E4000AD0167C0ED0120E030E0CE17DF0740F4C0
:101E50004A815B819E0141155105F1F0EA01F5CF00
:101E6000D383C28340815181840F951FC817D9073E
:101E700059F488819981840F951F029691838083FC
:101E80008A819B81938382832115310529F4F09304
:101E9000B001E093AF013DC0E901FB83EA834991C2
:101EA0005991C40FD51FEC17FD0761F48081918112
:101EB000840F951F0296E90199838883828193811B
:101EC0009B838A83E0E0F0E012968D919C911397BA
:101ED000009719F0FD01DC01F7CF8D919C911197CE
:101EE0009D012E5F3F4F820F931F2091AD013091D6
:101EF000AE012817390769F4309729F41092B00120
:101F00001092AF0102C013821282B093AE01A0936F
:101F1000AD01DF91CF910895FB01DC0102C001907A
:101F20000D9241505040D8F70895DC0101C06D93E7
:0C1F300041505040E0F70895F894FFCFB6
:101F3C000000B101200070635461736B3100706359
:101F4C005461736B320049444C4500546D722053FC
:041F5C0076630000A8
:00000001FF
