S01700004672656552544F535F746573745F342E7372656391
S11300000C9460000C947D000C947D000C947D0095
S11300100C947D000C947D000C947D000C947D0068
S11300200C947D000C947D000C947D000C947D0058
S11300300C948F020C947D000C947D000C947D0034
S11300400C947D000C947D000C947D000C947D0038
S11300500C947D000C947D000C947D000C947D0028
S11300600C947D000C947D000C947D000C947D0018
S11300700C947D000C947D000C947D000C947D0008
S11300800C947D000C947D000C947D000C947D00F8
S11300900C947D000C947D000C947D000C947D00E8
S11300A00C947D000C947D000C947D00130C130CB7
S11300B0130C430C4B0C5B0C130C130C430C4B0C2C
S11300C011241FBECFEFDAE0DEBFCDBF11E0A0E008
S11300D0B1E0E2E8FBE102C005900D92A632B1075F
S11300E0D9F721E0A6E2B1E001C01D92A33BB2071B
S11300F0E1F70E946A010C94BF0D0C940000CF93A9
S1130100DF93EC010E947407CE010E948E0CEC0177
S11301100E944308209711F40E94BB00CE01DF9196
S1130120CF910895CF93DF93009741F0EC010E94A3
S11301307407CE010E94260D0E944308DF91CF91DF
S1130140089583EF80937E008FE380937D0080B7D2
S1130150877F80BF80B7806880BF83B7817F83BF7C
S11301600FB6F8940F9283B7816083BF0F900FBED0
S1130170889513BE08953F9A479A83ED90E30197BB
S1130180F1F700C00000379AF8CF3F9A479A2FE75B
S11301908AE196E0215080409040E1F700C00000E1
S11301A0379AF5CFFC010396928381832FEF3FEFBB
S11301B0348323839683858390878783108208956D
S11301C0FC01118610860895CF93DF939C01FB01F7
S11301D0DC011196CD91DC911297D383C2838C817B
S11301E09D81958384838C819D81DC0113967C930E
S11301F06E9312977D836C8331872087F901808108
S11302008F5F8083DF91CF910895CF93DF93EB01CC
S1130210488159814F3F2FEF520721F4FC01A781F8
S1130220B0850DC0DC01139601C0DF011296ED917B
S1130230FC9113972081318142175307B0F712962E
S1130240ED91FC911397FB83EA83D583C483BD832B
S1130250AC831396DC93CE93129799878887FC011D
S113026020812F5F2083DF91CF910895CF93DF9377
S1130270FC01A085B185C281D381848195819D8350
S11302808C83C481D581828193819B838A831196D7
S11302908D919C911297E817F90731F48481958127
S11302A012969C938E931197118610868C9181508F
S11302B08C938C91DF91CF910895FFCF81E00E94C0
S11302C06D049093270180932601892B11F081E01E
S11302D085B9FFCF8FEF84B915B88AB91BB82091BF
S11302E02A0130912B01E12CF12C0091070145E505
S11302F050E068E071E08EE591E00E942A062091CA
S11303002801309129010091060145E550E060E1A2
S113031071E08DE591E00E942A060E944607FFCF16
S1130320FC0160833197708331971082319720E804
S11303302083319710827797408331975083839736
S11303400895A89590EC88E10FB6F894A895809349
S113035060000FBE90936000A0919101B091920152
S1130360CD91CDBFDD91DEBFFF91EF91DF91CF91B4
S1130370BF91AF919F918F917F916F915F914F91B9
S11303803F912F911F910F91FF90EF90DF90CF90AD
S1130390BF90AF909F908F907F906F905F904F90A1
S11303A03F902F901F900F900FBE0F90089581E003
S11303B008950F920FB6F8940F921F9211242F9262
S11303C03F924F925F926F927F928F929F92AF92E1
S11303D0BF92CF92DF92EF92FF920F931F932F93CE
S11303E03F934F935F936F937F938F939F93AF93B9
S11303F0BF93CF93DF93EF93FF93A0919101B091BB
S113040092010DB60D920EB60D920E94C608A091EF
S11304109101B0919201CD91CDBFDD91DEBFFF91ED
S1130420EF91DF91CF91BF91AF919F918F917F9188
S11304306F915F914F913F912F911F910F91FF9079
S1130440EF90DF90CF90BF90AF909F908F907F9070
S11304506F905F904F903F902F901F900F900FBE22
S11304600F9008950F920FB6F8940F921F921124D3
S11304702F923F924F925F926F927F928F929F92B0
S1130480AF92BF92CF92DF92EF92FF920F931F939E
S11304902F933F934F935F936F937F938F939F9388
S11304A0AF93BF93CF93DF93EF93FF93A091910109
S11304B0B09192010DB60D920EB60D9213BE0E942C
S11304C0840781110E94C608A0919101B091920104
S11304D0CD91CDBFDD91DEBFFF91EF91DF91CF9143
S11304E0BF91AF919F918F917F916F915F914F9148
S11304F03F912F911F910F91FF90EF90DF90CF903C
S1130500BF90AF909F908F907F906F905F904F902F
S11305103F902F901F900F900FBE0F9008950E9450
S1130520320218950FB6F8940F92FC01928D0F9039
S11305300FBE81E0911180E008950F931F93CF9334
S1130540DF93EC01042F1A8D4C8D41110CC088816E
S11305509981892B09F042C08C819D810E940D0AEA
S11305601D821C8242C0011117C050E08A819B8108
S11305700E94AF0D2C8D8A819B81820F911D9B83DC
S11305808A832C813D818217930750F18881998158
S11305909B838A8380E029C050E08E819F810E94E2
S11305A0AF0D8C8D90E09195819591092E813F81BD
S11305B0280F391F3F832E8348815981241735071B
S11305C030F42C813D81820F931F9F838E830230F0
S11305D049F4112349F0115080E007C080E005C0C0
S11305E080E003C080E001C080E01F5F1A8FDF91CC
S11305F0CF911F910F910895FC01448D4423A9F0DC
S113060050E026813781240F351F37832683848168
S113061095812817390720F08081918197838683FB
S1130620CB01668177810E94AF0D0895EF92FF920E
S11306300F931F93CF938C010FB6F8940F92FC0184
S1130640C68D1C16ACF48189811106C011C0F80155
S11306508189811105C00CC07801F1E1EF0EF11C14
S1130660C7010E94720981110E94FB09C15079F7E8
S11306708FEFF801868F0F900FBE0FB6F8940F928C
S1130680C58D1C16ACF48085811106C011C0F8011B
S11306908085811105C00CC07801F8E0EF0EF11CD3
S11306A0C7010E94720981110E94FB09C15079F7A8
S11306B08FEFF801858F0F900FBECF911F910F918F
S11306C0FF90EF900895CF93DF93EC010FB6F89469
S11306D00F92E881F9818B8D2C8D90E030E0829F20
S11306E0A001839F500D929F500D11244E0F5F1F48
S11306F05D834C831A8EFB83EA830197829FA0015A
S1130700839F500D929F500D1124CF01840F951F8C
S11307109F838E838FEF8D8F8E8F61110CC08885A0
S1130720882389F0CE0108960E947209882359F023
S11307300E94D90108C0CE0108960E94D200CE01C1
S113074041960E94D2000F900FBE81E0DF91CF91BD
S113075008950F931F93CF93DF93082F162F869F2F
S1130760C00111244F960E947F00EC01009771F0A4
S1130770111103C09983888303C04F96998388839A
S11307800B8F1C8F61E0CE010E946303CE01DF91C9
S1130790CF911F910F9108959F92AF92BF92CF92E4
S11307A0DF92EF92FF920F931F93CF93DF9300D0CA
S11307B000D01F92CDB7DEB78C016B015D834C83F3
S11307C0A22EB12C992493947C0188E0E80EF11CAC
S11307D00FB6F8940F92F801928D838D981718F044
S11307E0F2E0AF1219C04A2DB601C8010E949D0261
S11307F0F8019189992349F0C80141960E94720930
S1130800882331F00E94D90103C081110E94D901CB
S11308100F900FBE81E050C08C819D81892B21F403
S11308200F900FBE80E048C0B11005C0CE01019604
S11308300E94BA09B92C0F900FBE0E9474070FB61C
S1130840F8940F92F801858D8F3F09F4158EF80105
S1130850868D8F3F09F4168E0F900FBEBE016C5F1C
S11308607F4FCE0101960E94C50981111FC00FB6AA
S1130870F8940F92F801928D838D0F900FBE981308
S11308800FC06C817D81C7010E944709C8010E9485
S113089016030E94430881119BCF0E94D90198CF6F
S11308A0C8010E9416030E94430892CFC8010E9407
S11308B016030E94430880E00F900F900F900F9052
S11308C00F90DF91CF911F910F91FF90EF90DF90E8
S11308D0CF90BF90AF909F900895CF93DF93482F10
S11308E060E081E00E94A903EC01009761F01D82A1
S11308F01C82198218821E8220E040E050E060E0F1
S113090070E00E94CC03CE01DF91CF910895EF9265
S1130910FF920F931F93CF93DF938A01FC01528DB3
S1130920338D531710F0223001F5422F7801EC017A
S11309301E8D8A8DCE010E949D021F3F81F48989FC
S11309408823A9F0CE0141960E947209882389F078
S1130950E114F10481F081E0F70180830DC0FF24EC
S1130960F394F10EFE8E81E007C080E005C081E0C3
S113097003C081E001C081E0DF91CF911F910F910D
S1130980FF90EF9008959F92AF92BF92CF92DF9223
S1130990EF92FF920F931F93CF93DF9300D000D079
S11309A01F92CDB7DEB78C015B015D834C83E12CD4
S11309B0992493946C0181E1C80ED11C0FB6F8946C
S11309C00F92F801F28CFF20A9F0B501C8010E9432
S11309D0FC02FA94F801F28E8085882339F0C8016C
S11309E008960E94720981110E94D9010F900FBECE
S11309F081E051C08C819D81892B21F40F900FBE21
S1130A0080E049C0E11005C0CE0101960E94BA09F8
S1130A10E92C0F900FBE0E9474070FB6F8940F9242
S1130A20F801858D8F3F09F4158EF801868D8F3F6F
S1130A3009F4168E0F900FBEBE016C5F7F4FCE017E
S1130A4001960E94C50981111AC0C8010E94920230
S1130A50882379F06C817D81C6010E944709C80111
S1130A600E9416030E9443088111A8CF0E94D90155
S1130A70A5CFC8010E9416030E9443089FCFC80156
S1130A800E9416030E944308C8010E949202882310
S1130A9009F494CF80E00F900F900F900F900F9077
S1130AA0DF91CF911F910F91FF90EF90DF90CF9046
S1130AB0BF90AF909F900895CF93DF93EC010FB652
S1130AC0F8940F928D8D8F3F09F41D8E8E8D8F3F7C
S1130AD009F41E8E0F900FBE8A8D811104C0CE01C1
S1130AE041960E945909CE010E941603DF91CF91CD
S1130AF00895E0915901F0915A018081811107C054
S1130B008FEF9FEF9093300180932F010895E09130
S1130B105901F0915A010580F681E02D0680F78194
S1130B20E02D828193819093300180932F01089569
S1130B30FF920F931F93CF93DF93EC01F62E009156
S1130B40380110913901809191019091920102969E
S1130B500E943601CF3F8FEFD80769F4FF2059F088
S1130B6060919101709192016E5F7F4F8BE391E0F0
S1130B700E94E4002FC0C00FD11FE0919101F091B9
S1130B809201D383C283C017D10768F460919101A5
S1130B907091920180915701909158016E5F7F4F3F
S1130BA00E94050117C0609191017091920180919A
S1130BB0590190915A016E5F7F4F0E940501809107
S1130BC02F0190913001C817D90720F4D093300138
S1130BD0C0932F01DF91CF911F910F91FF90089542
S1130BE005E411E00F2EFDE6EF2EF1E0FF2EF02DCF
S1130BF080914401882329F10FB6F8940F92D8010B
S1130C001596ED91FC911697C681D781CE01029677
S1130C100E94360180913A01815080933A0180917B
S1130C2044018150809344010F900FBE8F89988DA9
S1130C300E949200CE010E94920080914401811191
S1130C40DBCFF7018081823010F00E94D9010E942D
S1130C50A100CECF4F925F926F927F928F929F921C
S1130C60AF92BF92CF92DF92EF92FF920F93CF9306
S1130C70DF934C016B015A012901CA010E947F00D4
S1130C803C01892B09F4F1C088E290E00E947F00C6
S1130C90EC01892B99F0788E6F8AA50165EA70E0E2
S1130CA0C3010E94B80D81E0A81AB1088F89988DFC
S1130CB0A80EB91EC114D10429F420C0C3010E9496
S1130CC09200D3C0D6018C91898F8C918823A1F096
S1130CD0AE01465E5F4FF6013196B8E0CB0ED11CF3
S1130CE0CF012191DA012D93AD01DC018C91882390
S1130CF019F0EC15FD05A1F718A201C0198E0430F6
S1130D0008F003E00E8B09A31AA26E01B2E0CB0E29
S1130D10D11CC6010E94E000CE010C960E94E000A6
S1130D20D987C88784E090E0801B91099D878C87D0
S1130D30DB8BCA8B1BA21CA21DA21EA21FA2A20196
S1130D40B401C5010E94900199838883E114F104E0
S1130D5019F0F701D183C0830FB6F8940F928091F4
S1130D603A018F5F80933A018091910190919201B1
S1130D70892BD1F5D0939201C093910180913A01CE
S1130D80813009F041C08DE691E00E94D20086E7EF
S1130D9091E00E94D2008FE791E00E94D20088E89F
S1130DA091E00E94D20084E691E00E94D2008BE59B
S1130DB091E00E94D2008EE491E00E94D20085E48A
S1130DC091E00E94D2008BE391E00E94D20084E67D
S1130DD091E090935A01809359018BE591E09093AF
S1130DE058018093570110C08091360181110CC0C5
S1130DF0E0919101F091920196898E89891720F0F2
S1130E00D0939201C0939101809131018F5F8093BF
S1130E1031018E8990913701981710F4809337012E
S1130E2090E09C01220F331F220F331F220F331F28
S1130E30820F931FB60183599E4F0E94E4000F90C6
S1130E400FBE80913601882361F0E0919101F09109
S1130E50920196898E89981730F40E94D90181E015
S1130E6005C081E003C081E001C08FEFDF91CF9125
S1130E700F91FF90EF90DF90CF90BF90AF909F9035
S1130E808F907F906F905F904F900895EF92FF92B4
S1130E900F930F2EFDE2EF2EF1E0FF2EF02D00E078
S1130EA020E030E045E550E068E171E080EF95E056
S1130EB00E942A068130A1F40E94A50A813081F49F
S1130EC0F8948FEF9FEF9093300180932F0181E08E
S1130ED08093360110923901109238010E94A101C9
S1130EE00F91FF90EF90089580912C018F5F809374
S1130EF02C0108950FB6F8940F92809138019091C7
S1130F0039010F900FBE0895CF92DF92EF92FF92B6
S1130F100F931F93CF93DF9380912C0181119FC076
S1130F20E0903801F09039018FEFE81AF80AF09256
S1130F303901E0923801E114F104B9F480915901C6
S1130F4090915A01209157013091580130935A01E0
S1130F502093590190935801809357018091320155
S1130F608F5F809332010E94790580912F019091C7
S1130F703001E816F90610F4D12C53C0D12CCC243E
S1130F80C394E0915901F0915A018081811107C005
S1130F908FEF9FEF9093300180932F0142C0E09137
S1130FA05901F0915A010580F681E02DC681D7815F
S1130FB08A819B81E816F90628F490933001809386
S1130FC02F012FC08E010E5F1F4FC8010E943601F2
S1130FD08C899D89892B21F0CE010C960E943601C3
S1130FE08E8990913701981710F48093370190E01F
S1130FF09C01220F331F220F331F220F331F820F36
S1131000931FB80183599E4F0E94E400E09191011F
S1131010F09192019E898689981708F4B2CFDC2C4E
S1131020B0CFE0919101F0919201868990E0FC01AA
S1131030EE0FFF1FEE0FFF1FEE0FFF1F8E0F9F1F00
S1131040FC01E359FE4F8081823010F0DD24D394FB
S113105080913301882369F0DD24D3940AC0809100
S113106034019091350101969093350180933401B8
S1131070D12C8D2DDF91CF911F910F91FF90EF9087
S1131080DF90CF900895DF92EF92FF920F931F931A
S1131090CF93DF930FB6F8940F9280912C01815077
S11310A080932C0180912C01811163C080913A01BD
S11310B0811133C061C0D7011596ED91FC9116974B
S11310C0C681D781CE010C960E9436018E010E5F37
S11310D01F4FC8010E9436018E89909137019817DD
S11310E010F48093370190E09C01220F331F220FEC
S11310F0331F220F331F820F931FB80183599E4F52
S11311000E94E400E0919101F09192019E89868908
S1131110981768F0D09233010AC0C0E0D0E00F2ED7
S1131120FEE4EF2EF1E0FF2EF02DDD24D394F70141
S113113080818111C0CFCD2B11F00E947905C0911F
S11311403401D0913501209761F011E00E948407A9
S11311508111109333012197C9F710923501109230
S1131160340180913301882331F00E94D90181E058
S113117003C080E001C080E00F900FBEDF91CF91EB
S11311801F910F91FF90EF90DF90089580912C01B3
S1131190882321F081E08093330108951092330174
S11311A0A0919101B0919201E0919101F09192018D
S11311B02D913C918789908D8217930760F06091FF
S11311C09101709192018091910190919201675ED9
S11311D07F4F0E94C50020913701822F90E0FC01CF
S11311E0EE0FFF1FEE0FFF1FEE0FFF1FE80FF91F9B
S11311F0E359FE4F3081311111C02150822F90E00C
S1131200FC01EE0FFF1FEE0FFF1FEE0FFF1FE80F95
S1131210F91FE359FE4F3081332379F3AC01440FB6
S1131220551F440F551F440F551F480F591FDA010E
S1131230A359BE4F1196ED91FC9112970280F38150
S1131240E02D1296FC93EE93119740595E4FE417EC
S1131250F50729F442815381FD0152834183FC0146
S1131260EE0FFF1FEE0FFF1FEE0FFF1F8E0F9F1FCE
S1131270FC01E359FE4F0180F281E02D86819781C4
S11312809093920180939101209337010895CF9315
S1131290DF93EB016091910170919201645F7F4F44
S11312A00E94050161E0CE010E949805DF91CF9173
S11312B008950F931F93CF938B01C42F60919101D5
S11312C070919201645F7F4F0E94E400CC2311F07F
S11312D00FEF1FEF6C2FC8010E949805CF911F914B
S11312E00F9108950F931F93CF93DF93DC0115960D
S11312F0ED91FC911697C681D7818E01045F1F4F33
S1131300C8010E94360180912C0181111CC00A5031
S11313101109C8010E9436018E89909137019817EE
S113132010F48093370190E09C01220F331F220FA9
S1131330331F220F331F820F931FB80183599E4F0F
S11313400E94E40005C0B8018EE491E00E94E4002C
S1131350E0919101F09192019E898689891720F488
S113136081E08093330101C080E0DF91CF911F9130
S11313700F91089520913201FC01208320913801BE
S113138030913901328321830895CF93DF930FB6CF
S1131390F8940F922091380130913901DB014D917D
S11313A05C914F3FBFEF5B07F1F0EC01E981FA81FB
S11313B0A0913201B881BA1719F02E173F07A8F48B
S11313C02E1B3F0B2417350748F4FB01421B530B1C
S11313D0518340830E94BA0980E008C0FB01118256
S11313E0108281E003C080E001C081E00F900FBE55
S11313F0DF91CF91089581E0809333010895809126
S11314003601882331F080912C01882321F080E07B
S1131410089581E0089582E008950F931F93CF9378
S1131420DF93FC01892B79F182A1815082A3268963
S113143091A1291751F181112AC0EF018F010E5F8B
S11314401F4FC8010E94360189A18E8B24E030E031
S1131450281B31093D872C8790913701981710F488
S11314608093370190E09C01220F331F220F331F1A
S1131470220F331F820F931FB80183599E4F0E947E
S1131480E40081E005C080E003C080E001C080E0AA
S1131490DF91CF911F910F910895FC0173836283B3
S11314A0918780874617570790F0421B530B84851A
S11314B0958548175907E0F4BF016E5F7F4F80910F
S11314C0990190919A010E94050180E008954217C4
S11314D0530718F46217730768F4BF016E5F7F4FF8
S11314E080919B0190919C010E94050180E00895E8
S11314F081E0089581E008950FB6F8940F928091E9
S1131500970190919801892BE9F486EA91E00E9471
S1131510D2008DE991E00E94D20086EA91E0909396
S11315209C0180939B018DE991E090939A018093B3
S1131530990140E065E08AE00E94A9039093980134
S1131540809397010F900FBE0895EF92FF920F932F
S11315500E947C0A8091970190919801892B91F0C7
S11315600F2EF5E9EF2EF1E0FF2EF02D03E020E041
S113157030E045E550E06DE171E08FE79BE00E94CB
S11315802A0601C080E00F91FF90EF9008950F9319
S11315901F93CF93DF9300D000D01F92CDB7DEB757
S11315A0E0919701F0919801309771F1D901698325
S11315B05B834A839D838C836630ECF40E94FF092D
S11315C0823061F420E0A801BE016F5F7F4F8091FB
S11315D09701909198010E94CC0317C020E040E04D
S11315E050E0BE016F5F7F4F809197019091980109
S11315F00E94CC030AC020E0AD01BE016F5F7F4FA3
S1131600CF010E94870401C080E00F900F900F90DB
S11316100F900F90DF91CF911F910F910895AF928A
S1131620BF92CF92DF92EF92FF920F931F93CF93CB
S1131630DF936C010E947A077C0180919301909161
S11316409401E816F90608F048C030C00580F68118
S1131650E02DA080B180C681D7818E010E5F1F4F1F
S1131660C8010E943601E889F989CE0109958A8961
S113167082FF1CC08C859D858A0D9B1DA816B9060A
S113168060F49B838A83D987C887B80180919B01C2
S113169090919C010E94050109C000E010E020E047
S11316A030E0A50160E0CE010E94C70AE0919B01F1
S11316B0F0919C0180818111C9CF80919901909111
S11316C09A0190939C0180939B01F0939A01E0937B
S11316D0990181E0F601808302C0F6011082F09244
S11316E09401E0929301C701DF91CF911F910F9173
S11316F0FF90EF90DF90CF90BF90AF900895CF937D
S1131700DF9300D000D000D0CDB7DEB7CE01019674
S11317104C0144244394E12CF12C512CC82ED92C97
S1131720E0919B01F0919C018081882309F4DCC045
S11317300580F681E02DA080B1800E947407C40169
S11317400E940F0B8C01898181114BC00A151B0566
S1131750B8F10E944308E0919B01F0919C0105803F
S1131760F681E02D66807780C30102960E943601DF
S1131770D30152968C91529782FF17C01C966D919B
S11317807C911D976A0D7B1D9501A801C3010E94E0
S11317904D0A882369F00E2D1F2D2E2D3F2DA501F6
S11317A0652DC3010E94C70A03C08E7FF301828B9B
S11317B0D3015096ED91FC915197C301099587C0CF
S11317C0452DB501601B710B809197019091980193
S11317D00E945C050E944308811179C00E94D901CE
S11317E076C00E94430873C0898188230CF46FC0BB
S11317F0AC80BD80F50182859385892B21F0C501DC
S113180002960E943601CE0106960E940F0BE981D2
S11318100E2E000CFF0BEA30F10508F058C0EA5A0E
S1131820FF4F0C94880CD50152962C91529721604D
S113183052962C9352972A813B811C966D917C91F0
S11318401D97620F731FAC01C5010E944D0A8823C6
S1131850F1F1D5015096ED91FC915197C50109958F
S1131860F501828982FF33C04A815B818485958535
S1131870480F591F0E2D1F2D2E2D3F2D652DC501EF
S11318800E94C70A24C0D50152968C9152978E7F2C
S113189052968C931CC0F50122892160228B6A81A7
S11318A07B8175876487680F791F9C01AC01C50132
S11318B00E944D0A0CC0D50152968C9181FD04C042
S11318C0C5010E94920003C08E7FF501828B4E2DCC
S11318D05F2D6C2D7D2D80919701909198010E9430
S11318E0C304811181CF1CCF0E947407C4010E94DC
S11318F00F0B8C018981811174CFE0919901F091D2
S11319009A018081442D8111452DAE2CBF2C59CFD5
S1131910EE0FFF1F0590F491E02D09940F931F9390
S1131920CF93DF938230910510F482E090E0E09150
S1131930B101F091B20120E030E0A0E0B0E03097D6
S113194019F1408151810281138148175907C8F068
S11319508417950769F4109731F012960C93129737
S113196013961C9327C00093B1011093B20122C0B7
S11319702115310519F04217530718F49A01BD01D6
S1131980EF01DF01F801DBCF21153105F9F0281B48
S1131990390B2430310580F48A819B8161157105EE
S11319A021F0FB019383828304C09093B20180935E
S11319B0B101FE01329644C0FE01E20FF31F819390
S11319C0919322503109398328833AC02091AF0181
S11319D03091B001232B41F4209102013091030195
S11319E03093B0012093AF012091000130910101A7
S11319F02115310541F42DB73EB7409104015091B2
S1131A000501241B350BE091AF01F091B001E21701
S1131A10F307A0F42E1B3F0B2817390778F0AC010D
S1131A204E5F5F4F2417350748F04E0F5F1F5093EA
S1131A30B0014093AF018193919302C0E0E0F0E0E4
S1131A40CF01DF91CF911F910F910895CF93DF9331
S1131A50009709F481C0FC01329713821282A0918D
S1131A60B101B091B201109781F420813181820FCC
S1131A70931F2091AF013091B0012817390751F518
S1131A80F093B001E093AF0167C0ED0120E030E0D6
S1131A90CE17DF0740F44A815B819E014115510551
S1131AA0F1F0EA01F5CFD383C28340815181840FE1
S1131AB0951FC817D90759F488819981840F951FF8
S1131AC00296918380838A819B81938382832115EB
S1131AD0310529F4F093B201E093B1013DC0E9016D
S1131AE0FB83EA8349915991C40FD51FEC17FD0775
S1131AF061F480819181840F951F0296E901998395
S1131B008883828193819B838A83E0E0F0E012964C
S1131B108D919C911397009719F0FD01DC01F7CF8B
S1131B208D919C9111979D012E5F3F4F820F931FC2
S1131B302091AF013091B0012817390769F430972B
S1131B4029F41092B2011092B10102C013821282E0
S1131B50B093B001A093AF01DF91CF910895FB0141
S1131B60DC0102C001900D9241505040D8F7089515
S1131B70DC0101C06D9341505040E0F70895F894A2
S1051B80FFCF91
S1131B820000B3012000010370635461736B3100E0
S1131B9270635461736B320049444C4500546D7256
S1091BA2205376630000ED
S9030000FC
