:100000000C9460000C947D000C947D000C947D0099
:100010000C947D000C947D000C947D000C947D006C
:100020000C947D000C947D000C947D000C947D005C
:100030000C94B3020C947D000C947D000C947D0014
:100040000C947D000C947D000C947D000C947D003C
:100050000C947D000C947D000C947D000C947D002C
:100060000C947D000C947D000C947D000C947D001C
:100070000C947D000C947D000C947D000C947D000C
:100080000C947D000C947D000C947D000C947D00FC
:100090000C947D000C947D000C947D000C947D00EC
:1000A0000C947D000C947D000C947D004B0C4B0C4B
:1000B0004B0C7B0C830C930C4B0C4B0C7B0C830C70
:1000C00011241FBECFEFDAE0DEBFCDBF11E0A0E00C
:1000D000B1E0E2EFFBE102C005900D92A632B1075C
:1000E000D9F721E0A6E2B1E001C01D92A53BB2071D
:1000F000E1F70E947C010C94F70D0C940000CF9363
:10010000DF93EC010E949807CE010E94C60CEC011F
:100110000E946708209711F40E94BB00CE01DF9176
:10012000CF910895CF93DF93009741F0EC010E94A7
:100130009807CE010E945E0D0E946708DF91CF9163
:10014000089583EF80937E008FE380937D0080B7D6
:10015000877F80BF80B7806880BF83B7817F83BF80
:100160000FB6F8940F9283B7816083BF0F900FBED4
:10017000889513BE08953F9A479A83ED90E30197BF
:10018000F1F700C00000379AF8CF3F9A479A2FE75F
:100190008AE196E0215080409040E1F700C00000E5
:1001A000379AF5CFFC010396928381832FEF3FEFBF
:1001B0003483238396838583908787831082089571
:1001C000FC01118610860895CF93DF939C01FB01FB
:1001D000DC011196CD91DC911297D383C2838C817F
:1001E0009D81958384838C819D81DC0113967C9312
:1001F0006E9312977D836C8331872087F90180810C
:100200008F5F8083DF91CF910895CF93DF93EB01D0
:10021000488159814F3F2FEF520721F4FC01A781FC
:10022000B0850DC0DC01139601C0DF011296ED917F
:10023000FC9113972081318142175307B0F7129632
:10024000ED91FC911397FB83EA83D583C483BD832F
:10025000AC831396DC93CE93129799878887FC0121
:1002600020812F5F2083DF91CF910895CF93DF937B
:10027000FC01A085B185C281D381848195819D8354
:100280008C83C481D581828193819B838A831196DB
:100290008D919C911297E817F90731F4848195812B
:1002A00012969C938E931197118610868C91815093
:1002B0008C938C91DF91CF910895FFCF81E00E94C4
:1002C00091049093AE018093AD01C1E08091AD01A6
:1002D0009091AE01892B41F485B18C2785B980EDD1
:1002E00097E00E94EA08F2CF8BB18C278BB980EDA2
:1002F00097E00E94EA08EACF8FEF84B915B88AB96F
:100300001BB82091280130912901E12CF12C00919A
:10031000070145E550E068E071E08EE591E00E945C
:100320004E0620912601309127010091060145E5F6
:1003300050E060E171E08DE591E00E944E0643E0FF
:1003400060E081E00E94CD039093AE018093AD0107
:10035000009739F020E040E050E060E070E00E945B
:10036000F0030E946A07FFCFFC016083319770831E
:1003700031971082319720E8208331971082779748
:1003800040833197508383970895A89590EC88E136
:100390000FB6F894A895809360000FBE909360000C
:1003A000A0918F01B0919001CD91CDBFDD91DEBFC5
:1003B000FF91EF91DF91CF91BF91AF919F918F917D
:1003C0007F916F915F914F913F912F911F910F916D
:1003D000FF90EF90DF90CF90BF90AF909F908F9065
:1003E0007F906F905F904F903F902F901F900F9055
:1003F0000FBE0F90089581E008950F920FB6F89404
:100400000F921F9211242F923F924F925F926F9200
:100410007F928F929F92AF92BF92CF92DF92EF9294
:10042000FF920F931F932F933F934F935F936F937D
:100430007F938F939F93AF93BF93CF93DF93EF936C
:10044000FF93A0918F01B09190010DB60D920EB661
:100450000D920E94FE08A0918F01B0919001CD9164
:10046000CDBFDD91DEBFFF91EF91DF91CF91BF91C5
:10047000AF919F918F917F916F915F914F913F913C
:100480002F911F910F91FF90EF90DF90CF90BF9031
:10049000AF909F908F907F906F905F904F903F9024
:1004A0002F901F900F900FBE0F9008950F920FB6D0
:1004B000F8940F921F9211242F923F924F925F92C5
:1004C0006F927F928F929F92AF92BF92CF92DF9264
:1004D000EF92FF920F931F932F933F934F935F934E
:1004E0006F937F938F939F93AF93BF93CF93DF933C
:1004F000EF93FF93A0918F01B09190010DB60D92F3
:100500000EB60D9213BE0E94A80781110E94FE082C
:10051000A0918F01B0919001CD91CDBFDD91DEBF53
:10052000FF91EF91DF91CF91BF91AF919F918F910B
:100530007F916F915F914F913F912F911F910F91FB
:10054000FF90EF90DF90CF90BF90AF909F908F90F3
:100550007F906F905F904F903F902F901F900F90E3
:100560000FBE0F9008950E94560218950FB6F8948A
:100570000F92FC01928D0F900FBE81E0911180E0EF
:1005800008950F931F93CF93DF93EC01042F1A8DDF
:100590004C8D41110CC088819981892B09F042C092
:1005A0008C819D810E94450A1D821C8242C00111DE
:1005B00017C050E08A819B810E94E70D2C8D8A81B3
:1005C0009B81820F911D9B838A832C813D818217A1
:1005D000930750F1888199819B838A8380E029C0A9
:1005E00050E08E819F810E94E70D8C8D90E0919567
:1005F000819591092E813F81280F391F3F832E83DA
:10060000488159812417350730F42C813D81820FB0
:10061000931F9F838E83023049F4112349F01150B8
:1006200080E007C080E005C080E003C080E001C03A
:1006300080E01F5F1A8FDF91CF911F910F91089576
:10064000FC01448D4423A9F050E026813781240F1A
:10065000351F37832683848195812817390720F039
:100660008081918197838683CB01668177810E9407
:10067000E70D0895EF92FF920F931F93CF938C0194
:100680000FB6F8940F92FC01C68D1C16ACF481894C
:10069000811106C011C0F8018189811105C00CC00B
:1006A0007801F1E1EF0EF11CC7010E94AA09811146
:1006B0000E94330AC15079F78FEFF801868F0F90AF
:1006C0000FBE0FB6F8940F92C58D1C16ACF4808542
:1006D000811106C011C0F8018085811105C00CC0D0
:1006E0007801F8E0EF0EF11CC7010E94AA09811100
:1006F0000E94330AC15079F78FEFF801858F0F9070
:100700000FBECF911F910F91FF90EF900895CF935F
:10071000DF93EC010FB6F8940F92E881F9818B8D8D
:100720002C8D90E030E0829FA001839F500D929F1E
:10073000500D11244E0F5F1F5D834C831A8EFB8377
:10074000EA830197829FA001839F500D929F500DD5
:100750001124CF01840F951F9F838E838FEF8D8F80
:100760008E8F61110CC08885882389F0CE01089690
:100770000E94AA09882359F00E94FD0108C0CE01F9
:1007800008960E94D200CE0141960E94D2000F909E
:100790000FBE81E0DF91CF9108950F931F93CF9308
:1007A000DF93082F162F869FC00111244F960E94B9
:1007B0007F00EC01009771F0111103C099838883C9
:1007C00003C04F96998388830B8F1C8F61E0CE0105
:1007D0000E948703CE01DF91CF911F910F91089561
:1007E0009F92AF92BF92CF92DF92EF92FF920F93C0
:1007F0001F93CF93DF9300D000D01F92CDB7DEB709
:100800008C016B015D834C83A22EB12C99249394AF
:100810007C0188E0E80EF11C0FB6F8940F92F80105
:10082000928D838D981718F0F2E0AF1219C04A2DFF
:10083000B601C8010E94C102F8019189992349F0CB
:10084000C80141960E94AA09882331F00E94FD0147
:1008500003C081110E94FD010F900FBE81E050C0C6
:100860008C819D81892B21F40F900FBE80E048C0C0
:10087000B11005C0CE0101960E94F209B92C0F906B
:100880000FBE0E9498070FB6F8940F92F801858D5D
:100890008F3F09F4158EF801868D8F3F09F4168E6F
:1008A0000F900FBEBE016C5F7F4FCE0101960E947C
:1008B000FD0981111FC00FB6F8940F92F801928DB7
:1008C000838D0F900FBE98130FC06C817D81C7017F
:1008D0000E947F09C8010E943A030E9467088111A3
:1008E0009BCF0E94FD0198CFC8010E943A030E944D
:1008F000670892CFC8010E943A030E94670880E00F
:100900000F900F900F900F900F90DF91CF911F914C
:100910000F91FF90EF90DF90CF90BF90AF909F909E
:100920000895CF93DF93482F60E081E00E94CD03CC
:10093000EC01009761F01D821C82198218821E82D0
:1009400020E040E050E060E070E00E94F003CE0163
:10095000DF91CF910895EF92FF920F931F93CF9362
:10096000DF938A01FC01528D338D531710F0223032
:1009700001F5422F7801EC011E8D8A8DCE010E9477
:10098000C1021F3F81F489898823A9F0CE014196D5
:100990000E94AA09882389F0E114F10481F081E022
:1009A000F70180830DC0FF24F394F10EFE8E81E0E9
:1009B00007C080E005C081E003C081E001C081E0A4
:1009C000DF91CF911F910F91FF90EF9008959F922B
:1009D000AF92BF92CF92DF92EF92FF920F931F934D
:1009E000CF93DF9300D000D01F92CDB7DEB78C013C
:1009F0005B015D834C83E12C992493946C0181E12C
:100A0000C80ED11C0FB6F8940F92F801F28CFF209B
:100A1000A9F0B501C8010E942003FA94F801F28EF2
:100A20008085882339F0C80108960E94AA0981119F
:100A30000E94FD010F900FBE81E051C08C819D810D
:100A4000892B21F40F900FBE80E049C0E11005C052
:100A5000CE0101960E94F209E92C0F900FBE0E9470
:100A600098070FB6F8940F92F801858D8F3F09F41F
:100A7000158EF801868D8F3F09F4168E0F900FBEEC
:100A8000BE016C5F7F4FCE0101960E94FD0981116E
:100A90001AC0C8010E94B602882379F06C817D815A
:100AA000C6010E947F09C8010E943A030E9467089C
:100AB0008111A8CF0E94FD01A5CFC8010E943A0371
:100AC0000E9467089FCFC8010E943A030E946708EE
:100AD000C8010E94B602882309F494CF80E00F90E9
:100AE0000F900F900F900F90DF91CF911F910F916A
:100AF000FF90EF90DF90CF90BF90AF909F900895C0
:100B0000CF93DF93EC010FB6F8940F928D8D8F3F4A
:100B100009F41D8E8E8D8F3F09F41E8E0F900FBE2F
:100B20008A8D811104C0CE0141960E949109CE01A7
:100B30000E943A03DF91CF910895E0915701F0911F
:100B400058018081811107C08FEF9FEF90932E0194
:100B500080932D010895E0915701F091580105808F
:100B6000F681E02D0680F781E02D828193819093BC
:100B70002E0180932D010895FF920F931F93CF9321
:100B8000DF93EC01F62E0091360110913701809130
:100B90008F019091900102960E943601CF3F8FEF16
:100BA000D80769F4FF2059F060918F01709190018E
:100BB0006E5F7F4F89E391E00E94E4002FC0C00F79
:100BC000D11FE0918F01F0919001D383C283C017B0
:100BD000D10768F460918F01709190018091550167
:100BE000909156016E5F7F4F0E94050117C0609182
:100BF0008F017091900180915701909158016E5F23
:100C00007F4F0E94050180912D0190912E01C81700
:100C1000D90720F4D0932E01C0932D01DF91CF91FD
:100C20001F910F91FF90089503E411E00F2EFBE652
:100C3000EF2EF1E0FF2EF02D80914201882329F163
:100C40000FB6F8940F92D8011596ED91FC91169776
:100C5000C681D781CE0102960E943601809138016B
:100C600081508093380180914201815080934201EC
:100C70000F900FBE8F89988D0E949200CE010E9426
:100C80009200809142018111DBCFF7018081823097
:100C900010F00E94FD010E94A100CECF4F925F9202
:100CA0006F927F928F929F92AF92BF92CF92DF927C
:100CB000EF92FF920F93CF93DF934C016B015A0198
:100CC0002901CA010E947F003C01892B09F4F1C06F
:100CD00088E290E00E947F00EC01892B99F0788EE9
:100CE0006F8AA50165EA70E0C3010E94F00D81E002
:100CF000A81AB1088F89988DA80EB91EC114D10405
:100D000029F420C0C3010E949200D3C0D6018C9167
:100D1000898F8C918823A1F0AE01465E5F4FF6016A
:100D20003196B8E0CB0ED11CCF012191DA012D9381
:100D3000AD01DC018C91882319F0EC15FD05A1F7BC
:100D400018A201C0198E043008F003E00E8B09A32D
:100D50001AA26E01B2E0CB0ED11CC6010E94E000C7
:100D6000CE010C960E94E000D987C88784E090E00D
:100D7000801B91099D878C87DB8BCA8B1BA21CA2D1
:100D80001DA21EA21FA2A201B401C5010E94B401AE
:100D900099838883E114F10419F0F701D183C083AA
:100DA0000FB6F8940F92809138018F5F80933801CD
:100DB00080918F0190919001892BD1F5D093900172
:100DC000C0938F0180913801813009F041C08BE6DA
:100DD00091E00E94D20084E791E00E94D2008DE76A
:100DE00091E00E94D20086E891E00E94D20082E663
:100DF00091E00E94D20089E591E00E94D2008CE44B
:100E000091E00E94D20083E491E00E94D20089E345
:100E100091E00E94D20082E691E090935801809385
:100E2000570189E591E0909356018093550110C0D8
:100E30008091340181110CC0E0918F01F0919001FB
:100E400096898E89891720F0D0939001C0938F01E5
:100E500080912F018F5F80932F018E8990913501B2
:100E6000981710F48093350190E09C01220F331FF6
:100E7000220F331F220F331F820F931FB601855994
:100E80009E4F0E94E4000F900FBE80913401882392
:100E900061F0E0918F01F091900196898E89981709
:100EA00030F40E94FD0181E005C081E003C081E0D3
:100EB00001C08FEFDF91CF910F91FF90EF90DF9006
:100EC000CF90BF90AF909F908F907F906F905F90EA
:100ED0004F900895EF92FF920F930F2EFBE2EF2EAB
:100EE000F1E0FF2EF02D00E020E030E045E550E09D
:100EF00068E171E084E196E00E944E068130A1F441
:100F00000E94DD0A813081F4F8948FEF9FEF909377
:100F10002E0180932D0181E08093340110923701DE
:100F2000109236010E94C5010F91FF90EF90089535
:100F300080912A018F5F80932A0108950FB6F8945B
:100F40000F9280913601909137010F900FBE089556
:100F5000CF92DF92EF92FF920F931F93CF93DF9385
:100F600080912A0181119FC0E0903601F0903701F5
:100F70008FEFE81AF80AF0923701E0923601E11497
:100F8000F104B9F4809157019091580120915501D5
:100F90003091560130935801209357019093560198
:100FA00080935501809130018F5F809330010E94C2
:100FB0009D0580912D0190912E01E816F90610F4FF
:100FC000D12C53C0D12CCC24C394E0915701F09183
:100FD00058018081811107C08FEF9FEF90932E0100
:100FE00080932D0142C0E0915701F0915801058096
:100FF000F681E02DC681D7818A819B81E816F906AA
:1010000028F490932E0180932D012FC08E010E5F46
:101010001F4FC8010E9436018C899D89892B21F0C0
:10102000CE010C960E9436018E8990913501981759
:1010300010F48093350190E09C01220F331F220FA2
:10104000331F220F331F820F931FB80185599E4F04
:101050000E94E400E0918F01F09190019E898689C1
:10106000981708F4B2CFDC2CB0CFE0918F01F0914B
:101070009001868990E0FC01EE0FFF1FEE0FFF1F2D
:10108000EE0FFF1F8E0F9F1FFC01E559FE4F808161
:10109000823010F0DD24D39480913101882369F0EF
:1010A000DD24D3940AC080913201909133010196DE
:1010B0009093330180933201D12C8D2DDF91CF910C
:1010C0001F910F91FF90EF90DF90CF900895DF92E6
:1010D000EF92FF920F931F93CF93DF930FB6F89485
:1010E0000F9280912A01815080932A0180912A01D8
:1010F000811163C080913801811133C061C0D70173
:101100001596ED91FC911697C681D781CE010C966C
:101110000E9436018E010E5F1F4FC8010E943601EA
:101120008E8990913501981710F48093350190E0E5
:101130009C01220F331F220F331F220F331F820FF8
:10114000931FB80185599E4F0E94E400E0918F01E2
:10115000F09190019E898689981768F0D0923101AC
:101160000AC0C0E0D0E00F2EFCE4EF2EF1E0FF2E2D
:10117000F02DDD24D394F70180818111C0CFCD2BD8
:1011800011F00E949D05C0913201D091330120974A
:1011900061F011E00E94A80781111093310121979D
:1011A000C9F71092330110923201809131018823E6
:1011B00031F00E94FD0181E003C080E001C080E0C9
:1011C0000F900FBEDF91CF911F910F91FF90EF9085
:1011D000DF900895CF93DF93EC01892B51F00E94AB
:1011E000980760E0CE010E94BC050E94670881114B
:1011F00002C00E94FD01DF91CF91089580912A01E4
:10120000882321F081E0809331010895109231010B
:10121000A0918F01B0919001E0918F01F091900128
:101220002D913C918789908D8217930760F0609192
:101230008F017091900180918F0190919001675E74
:101240007F4F0E94C50020913501822F90E0FC0164
:10125000EE0FFF1FEE0FFF1FEE0FFF1FE80FF91F2E
:10126000E559FE4F3081311111C02150822F90E09D
:10127000FC01EE0FFF1FEE0FFF1FEE0FFF1FE80F29
:10128000F91FE559FE4F3081332379F3AC01440F48
:10129000551F440F551F440F551F480F591FDA01A2
:1012A000A559BE4F1196ED91FC9112970280F381E2
:1012B000E02D1296FC93EE93119742595E4FE4177E
:1012C000F50729F442815381FD0152834183FC01DA
:1012D000EE0FFF1FEE0FFF1FEE0FFF1F8E0F9F1F62
:1012E000FC01E559FE4F0180F281E02D8681978156
:1012F0009093900180938F01209335010895CF93AF
:10130000DF93EB0160918F0170919001645F7F4FDB
:101310000E94050161E0CE010E94BC05DF91CF91E2
:1013200008950F931F93CF938B01C42F60918F016A
:1013300070919001645F7F4F0E94E400CC2311F014
:101340000FEF1FEF6C2FC8010E94BC05CF911F91BA
:101350000F9108950F931F93CF93DF93DC011596A0
:10136000ED91FC911697C681D7818E01045F1F4FC6
:10137000C8010E94360180912A0181111CC00A50C7
:101380001109C8010E9436018E8990913501981784
:1013900010F48093350190E09C01220F331F220F3F
:1013A000331F220F331F820F931FB80185599E4FA1
:1013B0000E94E40005C0B8018CE491E00E94E400C2
:1013C000E0918F01F09190019E898689891720F420
:1013D00081E08093310101C080E0DF91CF911F91C6
:1013E0000F91089520913001FC0120832091360156
:1013F00030913701328321830895CF93DF930FB665
:10140000F8940F922091360130913701DB014D9114
:101410005C914F3FBFEF5B07F1F0EC01E981FA818E
:10142000A0913001B881BA1719F02E173F07A8F420
:101430002E1B3F0B2417350748F4FB01421B530BAF
:10144000518340830E94F20980E008C0FB011182B1
:10145000108281E003C080E001C081E00F900FBEE8
:10146000DF91CF91089581E08093310108958091BB
:101470003401882331F080912A01882321F080E013
:10148000089581E0089582E008950F931F93CF930C
:10149000DF93FC01892B79F182A1815082A32689F7
:1014A00091A1291751F181112AC0EF018F010E5F1F
:1014B0001F4FC8010E94360189A18E8B24E030E0C5
:1014C000281B31093D872C8790913501981710F41E
:1014D0008093350190E09C01220F331F220F331FB0
:1014E000220F331F820F931FB80185599E4F0E9410
:1014F000E40081E005C080E003C080E001C080E03E
:10150000DF91CF911F910F910895FC017383628346
:10151000918780874617570790F0421B530B8485AD
:10152000958548175907E0F4BF016E5F7F4F8091A2
:101530009701909198010E94050180E0089542175B
:10154000530718F46217730768F4BF016E5F7F4F8B
:101550008091990190919A010E94050180E008957F
:1015600081E0089581E008950FB6F8940F9280917C
:10157000950190919601892BE9F484EA91E00E940B
:10158000D2008BE991E00E94D20084EA91E090932E
:101590009A01809399018BE991E09093980180934F
:1015A000970140E065E08AE00E94CD0390939601A8
:1015B000809395010F900FBE0895EF92FF920F93C5
:1015C0000E94B40A8091950190919601892B91F027
:1015D0000F2EF3E9EF2EF1E0FF2EF02D03E020E0D7
:1015E00030E045E550E06DE171E087EB9BE00E9463
:1015F0004E0601C080E00F91FF90EF9008950F9389
:101600001F93CF93DF9300D000D01F92CDB7DEB7EA
:10161000E0919501F0919601309771F1D9016983BC
:101620005B834A839D838C836630ECF40E94370A87
:10163000823061F420E0A801BE016F5F7F4F80918E
:101640009501909196010E94F00317C020E040E0C0
:1016500050E0BE016F5F7F4F8091950190919601A0
:101660000E94F0030AC020E0AD01BE016F5F7F4F12
:10167000CF010E94AB0401C080E00F900F900F904B
:101680000F900F90DF91CF911F910F910895AF921E
:10169000BF92CF92DF92EF92FF920F931F93CF935F
:1016A000DF936C010E949E077C01809191019091D3
:1016B0009201E816F90608F048C030C00580F681AE
:1016C000E02DA080B180C681D7818E010E5F1F4FB3
:1016D000C8010E943601E889F989CE0109958A89F5
:1016E00082FF1CC08C859D858A0D9B1DA816B9069E
:1016F00060F49B838A83D987C887B8018091990158
:1017000090919A010E94050109C000E010E020E0DC
:1017100030E0A50160E0CE010E94FF0AE09199014E
:10172000F0919A0180818111C9CF809197019091A8
:10173000980190939A0180939901F0939801E09316
:10174000970181E0F601808302C0F6011082F092D9
:101750009201E0929101C701DF91CF911F910F910A
:10176000FF90EF90DF90CF90BF90AF900895CF9310
:10177000DF9300D000D000D0CDB7DEB7CE01019608
:101780004C0144244394E12CF12C512CC82ED92C2B
:10179000E0919901F0919A018081882309F4DCC0DD
:1017A0000580F681E02DA080B1800E949807C401D9
:1017B0000E94470B8C01898181114BC00A151B05C2
:1017C000B8F10E946708E0919901F0919A010580B3
:1017D000F681E02D66807780C30102960E94360173
:1017E000D30152968C91529782FF17C01C966D912F
:1017F0007C911D976A0D7B1D9501A801C3010E9474
:10180000850A882369F00E2D1F2D2E2D3F2DA50151
:10181000652DC3010E94FF0A03C08E7FF301828BF6
:10182000D3015096ED91FC915197C301099587C062
:10183000452DB501601B710B80919501909196012A
:101840000E9480050E946708811179C00E94FD01F5
:1018500076C00E94670873C0898188230CF46FC02A
:10186000AC80BD80F50182859385892B21F0C5016F
:1018700002960E943601CE0106960E94470BE9812E
:101880000E2E000CFF0BEA30F10508F058C0EA5AA2
:10189000FF4F0C94C00CD50152962C9152972160A9
:1018A00052962C9352972A813B811C966D917C9184
:1018B0001D97620F731FAC01C5010E94850A882322
:1018C000F1F1D5015096ED91FC915197C501099523
:1018D000F501828982FF33C04A815B8184859585C9
:1018E000480F591F0E2D1F2D2E2D3F2D652DC50183
:1018F0000E94FF0A24C0D50152968C9152978E7F88
:1019000052968C931CC0F50122892160228B6A813A
:101910007B8175876487680F791F9C01AC01C501C5
:101920000E94850A0CC0D50152968C9181FD04C09D
:10193000C5010E94920003C08E7FF501828B4E2D5F
:101940005F2D6C2D7D2D80919501909196010E94C7
:10195000E704811181CF1CCF0E949807C4010E9427
:10196000470B8C018981811174CFE0919701F0912F
:1019700098018081442D8111452DAE2CBF2C59CF6B
:10198000EE0FFF1F0590F491E02D09940F931F9324
:10199000CF93DF938230910510F482E090E0E091E4
:1019A000B301F091B40120E030E0A0E0B0E0309766
:1019B00019F1408151810281138148175907C8F0FC
:1019C0008417950769F4109731F012960C931297CB
:1019D00013961C9327C00093B3011093B40122C047
:1019E0002115310519F04217530718F49A01BD016A
:1019F000EF01DF01F801DBCF21153105F9F0281BDC
:101A0000390B2430310580F48A819B816115710581
:101A100021F0FB019383828304C09093B4018093EF
:101A2000B301FE01329644C0FE01E20FF31F819321
:101A3000919322503109398328833AC02091B10112
:101A40003091B201232B41F4209102013091030126
:101A50003093B2012093B101209100013091010136
:101A60002115310541F42DB73EB740910401509145
:101A70000501241B350BE091B101F091B201E21791
:101A8000F307A0F42E1B3F0B2817390778F0AC01A1
:101A90004E5F5F4F2417350748F04E0F5F1F50937E
:101AA000B2014093B1018193919302C0E0E0F0E074
:101AB000CF01DF91CF911F910F910895CF93DF93C5
:101AC000009709F481C0FC01329713821282A09121
:101AD000B301B091B401109781F420813181820F5C
:101AE000931F2091B1013091B2012817390751F5A8
:101AF000F093B201E093B10167C0ED0120E030E066
:101B0000CE17DF0740F44A815B819E0141155105E4
:101B1000F1F0EA01F5CFD383C28340815181840F74
:101B2000951FC817D90759F488819981840F951F8B
:101B30000296918380838A819B819383828321157E
:101B4000310529F4F093B401E093B3013DC0E901FC
:101B5000FB83EA8349915991C40FD51FEC17FD0708
:101B600061F480819181840F951F0296E901998328
:101B70008883828193819B838A83E0E0F0E01296E0
:101B80008D919C911397009719F0FD01DC01F7CF1F
:101B90008D919C9111979D012E5F3F4F820F931F56
:101BA0002091B1013091B2012817390769F43097BB
:101BB00029F41092B4011092B30102C01382128270
:101BC000B093B201A093B101DF91CF910895FB01D1
:101BD000DC0102C001900D9241505040D8F70895A9
:101BE000DC0101C06D9341505040E0F70895F89436
:021BF000FFCF25
:101BF2000000B5012000010270635461736B310073
:101C020070635461736B320049444C4500546D72E9
:061C120020537663000080
:00000001FF
