:100000000C9460000C947D000C947D000C947D0099
:100010000C947D000C947D000C947D000C947D006C
:100020000C947D000C947D000C947D000C947D005C
:100030000C94F7020C947D000C947D000C947D00D0
:100040000C947D000C947D000C947D000C947D003C
:100050000C947D000C947D000C947D000C947D002C
:100060000C947D000C947D000C947D000C947D001C
:100070000C947D000C947D000C947D000C947D000C
:100080000C947D000C947D000C947D000C947D00FC
:100090000C947D000C947D000C947D000C947D00EC
:1000A0000C947D000C947D000C947D00F10CF10CFF
:1000B000F10C210D290D390DF10CF10C210D290D3B
:1000C00011241FBECFEFDAE0DEBFCDBF11E0A0E00C
:1000D000B1E0EEE3FDE102C005900D92A432B1075C
:1000E000D9F721E0A4E2B1E001C01D92A23BB20722
:1000F000E1F70E94CB010C949D0E0C940000CF936D
:10010000DF93EC010E94C207CE010E946C0DEC014E
:100110000E949108209711F40E94BB00CE01DF914C
:10012000CF910895CF93DF93009741F0EC010E94A7
:10013000C207CE010E94040E0E949108DF91CF9168
:10014000089583EF80937E008FE380937D0080B7D6
:10015000877F80BF80B7806880BF83B7817F83BF80
:100160000FB6F8940F9283B7816083BF0F900FBED4
:10017000889513BE08953F9A479A83ED90E30197BF
:10018000F1F700C00000379AF8CF3F9A479A2FE75F
:100190008AE196E0215080409040E1F700C00000E5
:1001A000379AF5CFFC010396928381832FEF3FEFBF
:1001B0003483238396838583908787831082089571
:1001C000FC01118610860895CF93DF939C01FB01FB
:1001D000DC011196CD91DC911297D383C2838C817F
:1001E0009D81958384838C819D81DC0113967C9312
:1001F0006E9312977D836C8331872087F90180810C
:100200008F5F8083DF91CF910895CF93DF93EB01D0
:10021000488159814F3F2FEF520721F4FC01A781FC
:10022000B0850DC0DC01139601C0DF011296ED917F
:10023000FC9113972081318142175307B0F7129632
:10024000ED91FC911397FB83EA83D583C483BD832F
:10025000AC831396DC93CE93129799878887FC0121
:1002600020812F5F2083DF91CF910895CF93DF937B
:10027000FC01A085B185C281D381848195819D8354
:100280008C83C481D581828193819B838A831196DB
:100290008D919C911297E817F90731F4848195812B
:1002A00012969C938E931197118610868C91815093
:1002B0008C938C91DF91CF910895CF93DF9300D0F1
:1002C000CDB7DEB70E94C8079A838983289A8091A8
:1002D00024018F5F809324018A3094F420E04AE067
:1002E00050E064E271E08091AC019091AD010E9418
:1002F000340460E273E0CE0101960E941409E7CF56
:100300008A3029F715B86CE271E0CE0101960E949F
:1003100014092A9A64E670E0CE0101960E9414093D
:1003200080912701909128010E94D309D0CFCF93CB
:10033000DF9300D0CDB7DEB70E94C8079A838983C8
:10034000299A09E018E0809124018A3011F5009380
:10035000240185B1812785B968EE73E0CE0101964D
:100360000E9414094AE050E064E271E08091AC011F
:100370009091AD010E94110560EA7FE0CE010196E7
:100380000E941409809124018150809324018823C4
:1003900004F72B9AD8CF8FEF84B915B88AB91BB858
:1003A0002091270130912801E12CF12C03E045E553
:1003B00050E066E071E08DE591E00E9478062091C2
:1003C00025013091260102E045E550E06EE071E044
:1003D00087E991E00E94780640E062E08AE00E94AE
:1003E00011049093AD018093AC010E949407FFCF5C
:1003F000FC0160833197708331971082319720E838
:100400002083319710827797408331975083839769
:100410000895A89590EC88E10FB6F894A89580937C
:1004200060000FBE90936000A0918E01B0918F018B
:10043000CD91CDBFDD91DEBFFF91EF91DF91CF91E7
:10044000BF91AF919F918F917F916F915F914F91EC
:100450003F912F911F910F91FF90EF90DF90CF90E0
:10046000BF90AF909F908F907F906F905F904F90D4
:100470003F902F901F900F900FBE0F90089581E036
:1004800008950F920FB6F8940F921F9211242F9295
:100490003F924F925F926F927F928F929F92AF9214
:1004A000BF92CF92DF92EF92FF920F931F932F9301
:1004B0003F934F935F936F937F938F939F93AF93EC
:1004C000BF93CF93DF93EF93FF93A0918E01B091F1
:1004D0008F010DB60D920EB60D920E945209A09199
:1004E0008E01B0918F01CD91CDBFDD91DEBFFF9127
:1004F000EF91DF91CF91BF91AF919F918F917F91BC
:100500006F915F914F913F912F911F910F91FF90AC
:10051000EF90DF90CF90BF90AF909F908F907F90A3
:100520006F905F904F903F902F901F900F900FBE55
:100530000F9008950F920FB6F8940F921F92112406
:100540002F923F924F925F926F927F928F929F92E3
:10055000AF92BF92CF92DF92EF92FF920F931F93D1
:100560002F933F934F935F936F937F938F939F93BB
:10057000AF93BF93CF93DF93EF93FF93A0918E013F
:10058000B0918F010DB60D920EB60D9213BE0E9462
:10059000D20781110E945209A0918E01B0918F0162
:1005A000CD91CDBFDD91DEBFFF91EF91DF91CF9176
:1005B000BF91AF919F918F917F916F915F914F917B
:1005C0003F912F911F910F91FF90EF90DF90CF906F
:1005D000BF90AF909F908F907F906F905F904F9063
:1005E0003F902F901F900F900FBE0F9008950E9484
:1005F0009A0218950FB6F8940F92FC01928D0F9005
:100600000FBE81E0911180E008950F931F93CF9367
:10061000DF93EC01042F1A8D4C8D41110CC08881A1
:100620009981892B09F042C08C819D810E94EB0A3F
:100630001D821C8242C0011117C050E08A819B813B
:100640000E948D0E2C8D8A819B81820F911D9B8330
:100650008A832C813D818217930750F1888199818B
:100660009B838A8380E029C050E08E819F810E9415
:100670008D0E8C8D90E09195819591092E813F8111
:10068000280F391F3F832E8348815981241735074E
:1006900030F42C813D81820F931F9F838E83023023
:1006A00049F4112349F0115080E007C080E005C0F3
:1006B00080E003C080E001C080E01F5F1A8FDF91FF
:1006C000CF911F910F910895FC01448D4423A9F00F
:1006D00050E026813781240F351F3783268384819C
:1006E00095812817390720F080819181978386832F
:1006F000CB01668177810E948D0E0895EF92FF9263
:100700000F931F93CF938C010FB6F8940F92FC01B7
:10071000C68D1C16ACF48189811106C011C0F80188
:100720008189811105C00CC07801F1E1EF0EF11C47
:10073000C7010E94500A81110E94D90AC15079F75D
:100740008FEFF801868F0F900FBE0FB6F8940F92BF
:10075000C58D1C16ACF48085811106C011C0F8014E
:100760008085811105C00CC07801F8E0EF0EF11C06
:10077000C7010E94500A81110E94D90AC15079F71D
:100780008FEFF801858F0F900FBECF911F910F91C2
:10079000FF90EF900895CF93DF93EC010FB6F8949C
:1007A0000F92E881F9818B8D2C8D90E030E0829F53
:1007B000A001839F500D929F500D11244E0F5F1F7B
:1007C0005D834C831A8EFB83EA830197829FA0018D
:1007D000839F500D929F500D1124CF01840F951FC0
:1007E0009F838E838FEF8D8F8E8F61110CC08885D4
:1007F000882389F0CE0108960E94500A882359F078
:100800000E94410208C0CE0108960E94D200CE018B
:1008100041960E94D2000F900FBE81E0DF91CF91F0
:1008200008950F931F93CF93DF93082F162F869F62
:10083000C00111244F960E947F00EC01009771F0D7
:10084000111103C09983888303C04F9699838883CD
:100850000B8F1C8F61E0CE010E94CB03CE01DF9194
:10086000CF911F910F9108959F92AF92BF92CF9217
:10087000DF92EF92FF920F931F93CF93DF9300D0FD
:1008800000D01F92CDB7DEB78C016B015D834C8326
:10089000A22EB12C992493947C0188E0E80EF11CDF
:1008A0000FB6F8940F92F801928D838D981718F077
:1008B000F2E0AF1219C04A2DB601C8010E9405032B
:1008C000F8019189992349F0C80141960E94500A84
:1008D000882331F00E94410203C081110E9441022D
:1008E0000F900FBE81E050C08C819D81892B21F437
:1008F0000F900FBE80E048C0B11005C0CE01019638
:100900000E94980AB92C0F900FBE0E94C2070FB622
:10091000F8940F92F801858D8F3F09F4158EF80138
:10092000868D8F3F09F4168E0F900FBEBE016C5F4F
:100930007F4FCE0101960E94A30A81111FC00FB6FE
:10094000F8940F92F801928D838D0F900FBE98133B
:100950000FC06C817D81C7010E94250AC8010E94D9
:100960007E030E94910881119BCF0E94410298CF83
:10097000C8010E947E030E94910892CFC8010E9484
:100980007E030E94910880E00F900F900F900F90CF
:100990000F90DF91CF911F910F91FF90EF90DF901B
:1009A000CF90BF90AF909F900895EF92FF920F93DA
:1009B0001F93CF93DF938A01FC01528D338D531720
:1009C00010F0223001F5422F7801EC011E8D8A8D46
:1009D000CE010E9405031F3F81F489898823A9F075
:1009E000CE0141960E94500A882389F0E114F10457
:1009F00081F081E0F70180830DC0FF24F394F10EB4
:100A0000FE8E81E007C080E005C081E003C081E088
:100A100001C081E0DF91CF911F910F91FF90EF9086
:100A200008959F92AF92BF92CF92DF92EF92FF9282
:100A30000F931F93CF93DF9300D000D01F92CDB7B9
:100A4000DEB78C015B015D834C83E12C9924939488
:100A50006C0181E1C80ED11C0FB6F8940F92F80119
:100A6000F28CFF20A9F0B501C8010E946403FA943A
:100A7000F801F28E8085882339F0C80108960E941B
:100A8000500A81110E9441020F900FBE81E051C0B7
:100A90008C819D81892B21F40F900FBE80E049C08D
:100AA000E11005C0CE0101960E94980AE92C0F9032
:100AB0000FBE0E94C2070FB6F8940F92F801858D01
:100AC0008F3F09F4158EF801868D8F3F09F4168E3D
:100AD0000F900FBEBE016C5F7F4FCE0101960E944A
:100AE000A30A81111AC0C8010E94FA02882379F072
:100AF0006C817D81C6010E94250AC8010E947E0387
:100B00000E9491088111A8CF0E944102A5CFC8017F
:100B10000E947E030E9491089FCFC8010E947E031D
:100B20000E949108C8010E94FA02882309F494CF18
:100B300080E00F900F900F900F900F90DF91CF916A
:100B40001F910F91FF90EF90DF90CF90BF90AF90EB
:100B50009F900895CF93DF93EC010FB6F8940F9216
:100B60008D8D8F3F09F41D8E8E8D8F3F09F41E8E63
:100B70000F900FBE8A8D811104C0CE0141960E9454
:100B8000370ACE010E947E03DF91CF910895E09154
:100B90005601F09157018081811107C08FEF9FEFBF
:100BA00090932D0180932C010895E0915601F091CE
:100BB00057010580F681E02D0680F781E02D8281C6
:100BC000938190932D0180932C010895FF920F93B0
:100BD0001F93CF93DF93EC01F62E00913501109116
:100BE000360180918E0190918F0102960E9436010C
:100BF000CF3F8FEFD80769F4FF2059F060918E0145
:100C000070918F016E5F7F4F88E391E00E94E40056
:100C10002FC0C00FD11FE0918E01F0918F01D383BF
:100C2000C283C017D10768F460918E0170918F0163
:100C300080915401909155016E5F7F4F0E94050194
:100C400017C060918E0170918F0180915601909133
:100C500057016E5F7F4F0E94050180912C0190919A
:100C60002D01C817D90720F4D0932D01C0932C0172
:100C7000DF91CF911F910F91FF90089502E411E051
:100C80000F2EFAE6EF2EF1E0FF2EF02D80914101BC
:100C9000882329F10FB6F8940F92D8011596ED919B
:100CA000FC911697C681D781CE0102960E9436012B
:100CB00080913701815080933701809141018150AB
:100CC000809341010F900FBE8F89988D0E949200F2
:100CD000CE010E949200809141018111DBCFF7018A
:100CE0008081823010F00E9441020E94A100CECF8C
:100CF0004F925F926F927F928F929F92AF92BF922C
:100D0000CF92DF92EF92FF920F93CF93DF934C013C
:100D10006B015A012901CA010E947F003C01892B05
:100D200009F4F1C088E290E00E947F00EC01892B79
:100D300099F0788E6F8AA50165EA70E0C3010E9480
:100D4000960E81E0A81AB1088F89988DA80EB91E59
:100D5000C114D10429F420C0C3010E949200D3C061
:100D6000D6018C91898F8C918823A1F0AE01465ECB
:100D70005F4FF6013196B8E0CB0ED11CCF01219127
:100D8000DA012D93AD01DC018C91882319F0EC156B
:100D9000FD05A1F718A201C0198E043008F003E088
:100DA0000E8B09A31AA26E01B2E0CB0ED11CC601B4
:100DB0000E94E000CE010C960E94E000D987C8870F
:100DC00084E090E0801B91099D878C87DB8BCA8B28
:100DD0001BA21CA21DA21EA21FA2A201B401C5013A
:100DE0000E94F80199838883E114F10419F0F70156
:100DF000D183C0830FB6F8940F92809137018F5F33
:100E00008093370180918E0190918F01892BD1F5CC
:100E1000D0938F01C0938E0180913701813009F00A
:100E200041C08AE691E00E94D20083E791E00E94EF
:100E3000D2008CE791E00E94D20085E891E00E9408
:100E4000D20081E691E00E94D20088E591E00E9404
:100E5000D2008BE491E00E94D20082E491E00E94F3
:100E6000D20088E391E00E94D20081E691E0909365
:100E700057018093560188E591E090935501809346
:100E8000540110C08091330181110CC0E0918E019A
:100E9000F0918F0196898E89891720F0D0938F0168
:100EA000C0938E0180912E018F5F80932E018E89D9
:100EB00090913401981710F48093340190E09C01D4
:100EC000220F331F220F331F220F331F820F931F56
:100ED000B60186599E4F0E94E4000F900FBE80918C
:100EE0003301882361F0E0918E01F0918F019689A2
:100EF0008E89981730F40E94410281E005C081E09C
:100F000003C081E001C08FEFDF91CF910F91FF907F
:100F1000EF90DF90CF90BF90AF909F908F907F9099
:100F20006F905F904F900895EF92FF920F930F2E66
:100F3000FAE2EF2EF1E0FF2EF02D00E020E030E0AD
:100F400045E550E066E171E08EE396E00E947806A8
:100F50008130A1F40E94830B813081F4F8948FEFEB
:100F60009FEF90932D0180932C0181E080933301BA
:100F700010923601109235010E9409020F91FF90E4
:100F8000EF900895809129018F5F80932901089542
:100F90000FB6F8940F9280913501909136010F9021
:100FA0000FBE0895CF92DF92EF92FF920F931F939F
:100FB000CF93DF938091290181119FC0E09035018B
:100FC000F09036018FEFE81AF80AF0923601E092BD
:100FD0003501E114F104B9F4809156019091570163
:100FE00020915401309155013093570120935601BF
:100FF000909355018093540180912F018F5F8093CE
:101000002F010E94C70580912C0190912D01E816B7
:10101000F90610F4D12C53C0D12CCC24C394E09108
:101020005601F09157018081811107C08FEF9FEF2A
:1010300090932D0180932C0142C0E0915601F091D4
:1010400057010580F681E02DC681D7818A819B8179
:10105000E816F90628F490932D0180932C012FC0F7
:101060008E010E5F1F4FC8010E9436018C899D8939
:10107000892B21F0CE010C960E9436018E89909129
:101080003401981710F48093340190E09C01220FF2
:10109000331F220F331F220F331F820F931FB801FC
:1010A00086599E4F0E94E400E0918E01F0918F01DD
:1010B0009E898689981708F4B2CFDC2CB0CFE091D6
:1010C0008E01F0918F01868990E0FC01EE0FFF1FE9
:1010D000EE0FFF1FEE0FFF1F8E0F9F1FFC01E65943
:1010E000FE4F8081823010F0DD24D3948091300156
:1010F000882369F0DD24D3940AC080913101909156
:10110000320101969093320180933101D12C8D2DC3
:10111000DF91CF911F910F91FF90EF90DF90CF90D3
:101120000895DF92EF92FF920F931F93CF93DF9377
:101130000FB6F8940F928091290181508093290174
:1011400080912901811163C080913701811133C0E1
:1011500061C0D7011596ED91FC911697C681D78194
:10116000CE010C960E9436018E010E5F1F4FC80102
:101170000E9436018E8990913401981710F4809363
:10118000340190E09C01220F331F220F331F220FE6
:10119000331F820F931FB80186599E4F0E94E400AF
:1011A000E0918E01F0918F019E898689981768F0F1
:1011B000D09230010AC0C0E0D0E00F2EFBE4EF2E49
:1011C000F1E0FF2EF02DDD24D394F7018081811111
:1011D000C0CFCD2B11F00E94C705C0913101D09135
:1011E0003201209761F011E00E94D2078111109323
:1011F00030012197C9F7109232011092310180918C
:101200003001882331F00E94410281E003C080E078
:1012100001C080E00F900FBEDF91CF911F910F9121
:10122000FF90EF90DF9008950F931F93CF93DF937C
:101230008C01EB010E94C2074091350150913601AB
:10124000F80120813181C9018C0F9D1F421753077E
:1012500048F482179307E8F491838083481759076D
:1012600068F407C08217930780F04817590768F0A1
:1012700010C060E0841B950B0E94E6050E94910857
:1012800081110BC00E94410208C0F8019183808344
:10129000F0CFF80191838083F1CFDF91CF911F913F
:1012A0000F91089580912901882321F081E0809396
:1012B0003001089510923001A0918E01B0918F01FC
:1012C000E0918E01F0918F012D913C918789908D55
:1012D0008217930760F060918E0170918F01809169
:1012E0008E0190918F01675E7F4F0E94C500209113
:1012F0003401822F90E0FC01EE0FFF1FEE0FFF1F65
:10130000EE0FFF1FE80FF91FE659FE4F3081311134
:1013100011C02150822F90E0FC01EE0FFF1FEE0F55
:10132000FF1FEE0FFF1FE80FF91FE659FE4F308138
:10133000332379F3AC01440F551F440F551F440F5D
:10134000551F480F591FDA01A659BE4F1196ED914E
:10135000FC9112970280F381E02D1296FC93EE939C
:10136000119743595E4FE417F50729F442815381E1
:10137000FD0152834183FC01EE0FFF1FEE0FFF1FA3
:10138000EE0FFF1F8E0F9F1FFC01E659FE4F0180DD
:10139000F281E02D8681978190938F0180938E0159
:1013A0002093340108950F931F93CF93DF93EC01A3
:1013B0000FB6F8940F92892B21F4C0918E01D09131
:1013C0008F018E010E5F1F4FC8010E9436018C896C
:1013D0009D89892B21F0CE010C960E943601B8011F
:1013E00088E391E00E94E4008FA1813009F41FA2FC
:1013F0000F900FBE80913301882339F00FB6F89417
:101400000F920E94C7050F900FBE80918E019091A0
:101410008F01C817D907A1F480913301882319F0EF
:101420000E9441020DC090913801809137019813BC
:1014300005C010928F0110928E0102C00E945209C5
:10144000DF91CF911F910F910895CF93DF93EB011F
:1014500060918E0170918F01645F7F4F0E94050142
:1014600061E0CE010E94E605DF91CF9108950F93D0
:101470001F93CF938B01C42F60918E0170918F01C8
:10148000645F7F4F0E94E400CC2311F00FEF1FEF49
:101490006C2FC8010E94E605CF911F910F9108950E
:1014A0000F931F93CF93DF93DC011596ED91FC9181
:1014B0001697C681D7818E01045F1F4FC8010E9415
:1014C00036018091290181111CC00A501109C801FF
:1014D0000E9436018E8990913401981710F4809300
:1014E000340190E09C01220F331F220F331F220F83
:1014F000331F820F931FB80186599E4F0E94E4004C
:1015000005C0B8018BE491E00E94E400E0918E01F7
:10151000F0918F019E898689891720F481E080935C
:10152000300101C080E0DF91CF911F910F910895AC
:1015300020912F01FC01208320913501309136014B
:10154000328321830895CF93DF930FB6F8940F92DF
:101550002091350130913601DB014D915C914F3F77
:10156000BFEF5B07F1F0EC01E981FA81A0912F0157
:10157000B881BA1719F02E173F07A8F42E1B3F0B9E
:101580002417350748F4FB01421B530B518340835A
:101590000E94980A80E008C0FB011182108281E05D
:1015A00003C080E001C081E00F900FBEDF91CF91BA
:1015B000089581E08093300108958091330188235C
:1015C00031F080912901882321F080E0089581E0A5
:1015D000089582E008950F931F93CF93DF93FC014A
:1015E000892B79F182A1815082A3268991A12917A3
:1015F00051F181112AC0EF018F010E5F1F4FC80109
:101600000E94360189A18E8B24E030E0281B31092D
:101610003D872C8790913401981710F48093340102
:1016200090E09C01220F331F220F331F220F331F24
:10163000820F931FB80186599E4F0E94E40081E0FB
:1016400005C080E003C080E001C080E0DF91CF9161
:101650001F910F910895FC017383628391878087A6
:101660004617570790F0421B530B84859585481702
:101670005907E0F4BF016E5F7F4F80919601909112
:1016800097010E94050180E008954217530718F45E
:101690006217730768F4BF016E5F7F4F80919801F6
:1016A000909199010E94050180E0089581E00895DC
:1016B00081E008950FB6F8940F9280919401909173
:1016C0009501892BE9F483EA91E00E94D2008AE92E
:1016D00091E00E94D20083EA91E090939901809377
:1016E00098018AE991E0909397018093960140E0F8
:1016F00065E08AE00E941104909395018093940123
:101700000F900FBE0895EF92FF920F930E945A0B15
:101710008091940190919501892B91F00F2EF2E91F
:10172000EF2EF1E0FF2EF02D03E020E030E045E564
:1017300050E06BE171E08DE59CE00E94780601C00D
:1017400080E00F91FF90EF9008950F931F93CF9338
:10175000DF9300D000D01F92CDB7DEB7E0919401A7
:10176000F0919501309771F1D90169835B834A83C8
:101770009D838C836630ECF40E94DD0A823061F434
:1017800020E0A801BE016F5F7F4F8091940190918E
:1017900095010E94340417C020E040E050E0BE01F3
:1017A0006F5F7F4F80919401909195010E94340466
:1017B0000AC020E0AD01BE016F5F7F4FCF010E94E4
:1017C000D50401C080E00F900F900F900F900F9004
:1017D000DF91CF911F910F910895AF92BF92CF9259
:1017E000DF92EF92FF920F931F93CF93DF936C01E1
:1017F0000E94C8077C018091900190919101E816A8
:10180000F90608F048C030C00580F681E02DA080C0
:10181000B180C681D7818E010E5F1F4FC8010E9423
:101820003601E889F989CE0109958A8982FF1CC0B1
:101830008C859D858A0D9B1DA816B90660F49B8337
:101840008A83D987C887B8018091980190919901BE
:101850000E94050109C000E010E020E030E0A50191
:1018600060E0CE010E94A50BE0919801F0919901F2
:1018700080818111C9CF80919601909197019093B9
:10188000990180939801F0939701E093960181E08C
:10189000F601808302C0F6011082F0929101E0927D
:1018A0009001C701DF91CF911F910F91FF90EF90B1
:1018B000DF90CF90BF90AF900895CF93DF9300D08B
:1018C00000D000D0CDB7DEB7CE0101964C01442444
:1018D0004394E12CF12C512CC82ED92CE091980185
:1018E000F09199018081882309F4DCC00580F6819C
:1018F000E02DA080B1800E94C207C4010E94ED0BC0
:101900008C01898181114BC00A151B05B8F10E9419
:101910009108E0919801F09199010580F681E02D00
:1019200066807780C30102960E943601D3015296E9
:101930008C91529782FF17C01C966D917C911D97D8
:101940006A0D7B1D9501A801C3010E942B0B882302
:1019500069F00E2D1F2D2E2D3F2DA501652DC301E4
:101960000E94A50B03C08E7FF301828BD30150969A
:10197000ED91FC915197C301099587C0452DB501A3
:10198000601B710B80919401909195010E94AA05B2
:101990000E949108811179C00E94410276C00E9484
:1019A000910873C0898188230CF46FC0AC80BD801E
:1019B000F50182859385892B21F0C50102960E944D
:1019C0003601CE0106960E94ED0BE9810E2E000C29
:1019D000FF0BEA30F10508F058C0EA5AFF4F0C94AB
:1019E000660DD50152962C915297216052962C93F8
:1019F00052972A813B811C966D917C911D97620FB5
:101A0000731FAC01C5010E942B0B8823F1F1D50196
:101A10005096ED91FC915197C5010995F501828988
:101A200082FF33C04A815B8184859585480F591FA9
:101A30000E2D1F2D2E2D3F2D652DC5010E94A50BAE
:101A400024C0D50152968C9152978E7F52968C93DA
:101A50001CC0F50122892160228B6A817B817587F8
:101A60006487680F791F9C01AC01C5010E942B0B94
:101A70000CC0D50152968C9181FD04C0C5010E9415
:101A8000920003C08E7FF501828B4E2D5F2D6C2D51
:101A90007D2D80919401909195010E9411058111F5
:101AA00081CF1CCF0E94C207C4010E94ED0B8C01A4
:101AB0008981811174CFE0919601F0919701808125
:101AC000442D8111452DAE2CBF2C59CFEE0FFF1F99
:101AD0000590F491E02D09940F931F93CF93DF931A
:101AE0008230910510F482E090E0E091B001F09135
:101AF000B10120E030E0A0E0B0E0309719F1408182
:101B000051810281138148175907C8F0841795073E
:101B100069F4109731F012960C93129713961C9358
:101B200027C00093B0011093B10122C021153105E7
:101B300019F04217530718F49A01BD01EF01DF01B4
:101B4000F801DBCF21153105F9F0281B390B2430C2
:101B5000310580F48A819B816115710521F0FB01BB
:101B60009383828304C09093B1018093B001FE01FE
:101B7000329644C0FE01E20FF31F819391932250ED
:101B80003109398328833AC02091AE013091AF01E9
:101B9000232B41F420910201309103013093AF01D6
:101BA0002093AE01209100013091010121153105F2
:101BB00041F42DB73EB74091040150910501241B1B
:101BC000350BE091AE01F091AF01E217F307A0F4FD
:101BD0002E1B3F0B2817390778F0AC014E5F5F4F83
:101BE0002417350748F04E0F5F1F5093AF01409305
:101BF000AE018193919302C0E0E0F0E0CF01DF916C
:101C0000CF911F910F910895CF93DF93009709F41F
:101C100081C0FC01329713821282A091B001B09171
:101C2000B101109781F420813181820F931F20919F
:101C3000AE013091AF012817390751F5F093AF018C
:101C4000E093AE0167C0ED0120E030E0CE17DF0782
:101C500040F44A815B819E0141155105F1F0EA0192
:101C6000F5CFD383C28340815181840F951FC8175C
:101C7000D90759F488819981840F951F0296918321
:101C800080838A819B81938382832115310529F486
:101C9000F093B101E093B0013DC0E901FB83EA8319
:101CA00049915991C40FD51FEC17FD0761F480814C
:101CB0009181840F951F0296E9019983888382811F
:101CC00093819B838A83E0E0F0E012968D919C9152
:101CD0001397009719F0FD01DC01F7CF8D919C91CE
:101CE00011979D012E5F3F4F820F931F2091AE01F0
:101CF0003091AF012817390769F4309729F4109211
:101D0000B1011092B00102C013821282B093AF01F0
:101D1000A093AE01DF91CF910895FB01DC0102C0D9
:101D200001900D9241505040D8F70895DC0101C058
:0E1D30006D9341505040E0F70895F894FFCFB6
:101D3E000000B201200070635461736B3100706358
:101D4E005461736B320049444C4500546D722053FC
:041D5E0076630000A8
:00000001FF
