:100000000C942A000C94C6000C94EF000C943C0055
:100010000C943C000C943C000C943C000C943C0070
:100020000C943C000C943C000C943C000C943C0060
:100030000C943C000C943C000C943C000C943C0050
:100040000C943C000C943C000C9418010C943C0063
:100050000C943C0011241FBECFE5D4E0DEBFCDBF21
:1000600010E0A0E6B0E001C01D92A636B107E1F7AE
:100070000E9444010C946E010C940000813051F0F8
:10008000813018F0823079F40AC070936500609373
:100090006400089570936300609362000895709304
:1000A0006100609360000895813041F0813018F064
:1000B000823059F407C08BB7806402C08BB7806868
:1000C0008BBF08958BB780628BBF0895813041F05C
:1000D000813018F0823059F407C08BB78F7B02C093
:1000E0008BB78F778BBF08958BB78F7D8BBF0895AC
:1000F000813009F1813020F0823009F046C036C0ED
:10010000613051F0613028F0623061F06330E9F520
:100110000CC085B78E7F02C085B7816085BF85B76B
:100120008D7F2EC085B78E7F02C085B7816085BF69
:1001300085B7826025C0613051F0613028F06230AF
:1001400061F0633011F50CC085B78B7F02C085B7B5
:10015000846085BF85B7877F13C085B78B7F02C05A
:1001600085B7846085BF85B788600AC0623019F0A2
:10017000633041F403C085B78F7B02C085B78064CC
:1001800085BF089585B78F7B85BF08951F920F9215
:100190000FB60F9211242F933F934F935F936F935A
:1001A0007F938F939F93AF93BF93EF93FF93E091D0
:1001B0006400F0916500309709F00995FF91EF9187
:1001C000BF91AF919F918F917F916F915F914F916F
:1001D0003F912F910F900FBE0F901F9018951F9277
:1001E0000F920FB60F9211242F933F934F935F936B
:1001F0006F937F938F939F93AF93BF93EF93FF93EF
:10020000E0916200F0916300309709F00995FF9149
:10021000EF91BF91AF919F918F917F916F915F917E
:100220004F913F912F910F900FBE0F901F901895F7
:100230001F920F920FB60F9211242F933F934F935B
:100240005F936F937F938F939F93AF93BF93EF933E
:10025000FF93E0916000F0916100309709F00995FB
:10026000FF91EF91BF91AF919F918F917F916F918E
:100270005F914F913F912F910F900FBE0F901F9064
:1002800018950895089508958FEF87BB88BB7894DB
:1002900080E063E00E94780080E090E061E471E03B
:1002A0000E943E0081E090E062E471E00E943E0026
:1002B00082E090E063E471E00E943E0080E00E94F2
:1002C000540029E130E088B3809588BB80E49FE149
:1002D000F9013197F1F70197D9F7F5CFF894FFCFEE
:00000001FF
